{
	"contracts/Token.sol": {
		"MyToken": {
			"abi": [
				{
					"inputs": [],
					"stateMutability": "nonpayable",
					"type": "constructor"
				},
				{
					"anonymous": false,
					"inputs": [
						{
							"indexed": false,
							"internalType": "address",
							"name": "from",
							"type": "address"
						},
						{
							"indexed": false,
							"internalType": "address",
							"name": "to",
							"type": "address"
						},
						{
							"indexed": false,
							"internalType": "uint256",
							"name": "amount",
							"type": "uint256"
						}
					],
					"name": "Sent",
					"type": "event"
				},
				{
					"inputs": [
						{
							"internalType": "address",
							"name": "",
							"type": "address"
						}
					],
					"name": "balances",
					"outputs": [
						{
							"internalType": "uint256",
							"name": "",
							"type": "uint256"
						}
					],
					"stateMutability": "view",
					"type": "function"
				},
				{
					"inputs": [],
					"name": "buyToken",
					"outputs": [],
					"stateMutability": "payable",
					"type": "function"
				},
				{
					"inputs": [
						{
							"internalType": "address",
							"name": "receiver",
							"type": "address"
						},
						{
							"internalType": "uint256",
							"name": "amount",
							"type": "uint256"
						}
					],
					"name": "mint",
					"outputs": [],
					"stateMutability": "nonpayable",
					"type": "function"
				},
				{
					"inputs": [],
					"name": "minter",
					"outputs": [
						{
							"internalType": "address payable",
							"name": "",
							"type": "address"
						}
					],
					"stateMutability": "view",
					"type": "function"
				},
				{
					"inputs": [
						{
							"internalType": "address",
							"name": "receiver",
							"type": "address"
						},
						{
							"internalType": "uint256",
							"name": "amount",
							"type": "uint256"
						}
					],
					"name": "sender",
					"outputs": [],
					"stateMutability": "nonpayable",
					"type": "function"
				},
				{
					"inputs": [
						{
							"internalType": "uint256",
							"name": "newRate",
							"type": "uint256"
						}
					],
					"name": "setConversionRate",
					"outputs": [],
					"stateMutability": "nonpayable",
					"type": "function"
				}
			],
			"devdoc": {
				"kind": "dev",
				"methods": {},
				"version": 1
			},
			"evm": {
				"assembly": "    /* \"contracts/Token.sol\":73:1152  contract MyToken {\r... */\n  mstore(0x40, 0x80)\n    /* \"contracts/Token.sol\":263:343  constructor() {\r... */\n  callvalue\n  dup1\n  iszero\n  tag_1\n  jumpi\n  0x00\n  dup1\n  revert\ntag_1:\n  pop\n    /* \"contracts/Token.sol\":305:315  msg.sender */\n  caller\n    /* \"contracts/Token.sol\":288:294  minter */\n  0x00\n  dup1\n    /* \"contracts/Token.sol\":288:316  minter = payable(msg.sender) */\n  0x0100\n  exp\n  dup2\n  sload\n  dup2\n  0xffffffffffffffffffffffffffffffffffffffff\n  mul\n  not\n  and\n  swap1\n  dup4\n  0xffffffffffffffffffffffffffffffffffffffff\n  and\n  mul\n  or\n  swap1\n  sstore\n  pop\n    /* \"contracts/Token.sol\":334:335  0 */\n  0x00\n    /* \"contracts/Token.sol\":327:331  rate */\n  0x02\n    /* \"contracts/Token.sol\":327:335  rate = 0 */\n  dup2\n  swap1\n  sstore\n  pop\n    /* \"contracts/Token.sol\":73:1152  contract MyToken {\r... */\n  dataSize(sub_0)\n  dup1\n  dataOffset(sub_0)\n  0x00\n  codecopy\n  0x00\n  return\nstop\n\nsub_0: assembly {\n        /* \"contracts/Token.sol\":73:1152  contract MyToken {\r... */\n      mstore(0x40, 0x80)\n      jumpi(tag_1, lt(calldatasize, 0x04))\n      shr(0xe0, calldataload(0x00))\n      dup1\n      0x07546172\n      eq\n      tag_2\n      jumpi\n      dup1\n      0x27e235e3\n      eq\n      tag_3\n      jumpi\n      dup1\n      0x38daa915\n      eq\n      tag_4\n      jumpi\n      dup1\n      0x40c10f19\n      eq\n      tag_5\n      jumpi\n      dup1\n      0xa4821719\n      eq\n      tag_6\n      jumpi\n      dup1\n      0xd2e80494\n      eq\n      tag_7\n      jumpi\n    tag_1:\n      0x00\n      dup1\n      revert\n        /* \"contracts/Token.sol\":97:126  address payable public minter */\n    tag_2:\n      callvalue\n      dup1\n      iszero\n      tag_8\n      jumpi\n      0x00\n      dup1\n      revert\n    tag_8:\n      pop\n      tag_9\n      tag_10\n      jump\t// in\n    tag_9:\n      mload(0x40)\n      tag_11\n      swap2\n      swap1\n      tag_12\n      jump\t// in\n    tag_11:\n      mload(0x40)\n      dup1\n      swap2\n      sub\n      swap1\n      return\n        /* \"contracts/Token.sol\":133:174  mapping (address => uint) public balances */\n    tag_3:\n      callvalue\n      dup1\n      iszero\n      tag_13\n      jumpi\n      0x00\n      dup1\n      revert\n    tag_13:\n      pop\n      tag_14\n      0x04\n      dup1\n      calldatasize\n      sub\n      dup2\n      add\n      swap1\n      tag_15\n      swap2\n      swap1\n      tag_16\n      jump\t// in\n    tag_15:\n      tag_17\n      jump\t// in\n    tag_14:\n      mload(0x40)\n      tag_18\n      swap2\n      swap1\n      tag_19\n      jump\t// in\n    tag_18:\n      mload(0x40)\n      dup1\n      swap2\n      sub\n      swap1\n      return\n        /* \"contracts/Token.sol\":509:754  function sender(address receiver, uint amount) public {\r... */\n    tag_4:\n      callvalue\n      dup1\n      iszero\n      tag_20\n      jumpi\n      0x00\n      dup1\n      revert\n    tag_20:\n      pop\n      tag_21\n      0x04\n      dup1\n      calldatasize\n      sub\n      dup2\n      add\n      swap1\n      tag_22\n      swap2\n      swap1\n      tag_23\n      jump\t// in\n    tag_22:\n      tag_24\n      jump\t// in\n    tag_21:\n      stop\n        /* \"contracts/Token.sol\":351:501  function mint(address receiver, uint amount) public {\r... */\n    tag_5:\n      callvalue\n      dup1\n      iszero\n      tag_25\n      jumpi\n      0x00\n      dup1\n      revert\n    tag_25:\n      pop\n      tag_26\n      0x04\n      dup1\n      calldatasize\n      sub\n      dup2\n      add\n      swap1\n      tag_27\n      swap2\n      swap1\n      tag_23\n      jump\t// in\n    tag_27:\n      tag_28\n      jump\t// in\n    tag_26:\n      stop\n        /* \"contracts/Token.sol\":893:1149  function buyToken() public payable {\r... */\n    tag_6:\n      tag_29\n      tag_30\n      jump\t// in\n    tag_29:\n      stop\n        /* \"contracts/Token.sol\":762:885  function setConversionRate(uint newRate) public {\r... */\n    tag_7:\n      callvalue\n      dup1\n      iszero\n      tag_31\n      jumpi\n      0x00\n      dup1\n      revert\n    tag_31:\n      pop\n      tag_32\n      0x04\n      dup1\n      calldatasize\n      sub\n      dup2\n      add\n      swap1\n      tag_33\n      swap2\n      swap1\n      tag_34\n      jump\t// in\n    tag_33:\n      tag_35\n      jump\t// in\n    tag_32:\n      stop\n        /* \"contracts/Token.sol\":97:126  address payable public minter */\n    tag_10:\n      0x00\n      dup1\n      sload\n      swap1\n      0x0100\n      exp\n      swap1\n      div\n      0xffffffffffffffffffffffffffffffffffffffff\n      and\n      dup2\n      jump\t// out\n        /* \"contracts/Token.sol\":133:174  mapping (address => uint) public balances */\n    tag_17:\n      mstore(0x20, 0x01)\n      dup1\n      0x00\n      mstore\n      keccak256(0x00, 0x40)\n      0x00\n      swap2\n      pop\n      swap1\n      pop\n      sload\n      dup2\n      jump\t// out\n        /* \"contracts/Token.sol\":509:754  function sender(address receiver, uint amount) public {\r... */\n    tag_24:\n        /* \"contracts/Token.sol\":600:606  amount */\n      dup1\n        /* \"contracts/Token.sol\":577:585  balances */\n      0x01\n        /* \"contracts/Token.sol\":577:597  balances[msg.sender] */\n      0x00\n        /* \"contracts/Token.sol\":586:596  msg.sender */\n      caller\n        /* \"contracts/Token.sol\":577:597  balances[msg.sender] */\n      0xffffffffffffffffffffffffffffffffffffffff\n      and\n      0xffffffffffffffffffffffffffffffffffffffff\n      and\n      dup2\n      mstore\n      0x20\n      add\n      swap1\n      dup2\n      mstore\n      0x20\n      add\n      0x00\n      keccak256\n      sload\n        /* \"contracts/Token.sol\":577:606  balances[msg.sender] < amount */\n      lt\n        /* \"contracts/Token.sol\":574:615  if(balances[msg.sender] < amount) return; */\n      iszero\n      tag_37\n      jumpi\n        /* \"contracts/Token.sol\":608:615  return; */\n      jump(tag_36)\n        /* \"contracts/Token.sol\":574:615  if(balances[msg.sender] < amount) return; */\n    tag_37:\n        /* \"contracts/Token.sol\":649:655  amount */\n      dup1\n        /* \"contracts/Token.sol\":625:633  balances */\n      0x01\n        /* \"contracts/Token.sol\":625:645  balances[msg.sender] */\n      0x00\n        /* \"contracts/Token.sol\":634:644  msg.sender */\n      caller\n        /* \"contracts/Token.sol\":625:645  balances[msg.sender] */\n      0xffffffffffffffffffffffffffffffffffffffff\n      and\n      0xffffffffffffffffffffffffffffffffffffffff\n      and\n      dup2\n      mstore\n      0x20\n      add\n      swap1\n      dup2\n      mstore\n      0x20\n      add\n      0x00\n      keccak256\n      0x00\n        /* \"contracts/Token.sol\":625:655  balances[msg.sender] -= amount */\n      dup3\n      dup3\n      sload\n      tag_38\n      swap2\n      swap1\n      tag_39\n      jump\t// in\n    tag_38:\n      swap3\n      pop\n      pop\n      dup2\n      swap1\n      sstore\n      pop\n        /* \"contracts/Token.sol\":688:694  amount */\n      dup1\n        /* \"contracts/Token.sol\":666:674  balances */\n      0x01\n        /* \"contracts/Token.sol\":666:684  balances[receiver] */\n      0x00\n        /* \"contracts/Token.sol\":675:683  receiver */\n      dup5\n        /* \"contracts/Token.sol\":666:684  balances[receiver] */\n      0xffffffffffffffffffffffffffffffffffffffff\n      and\n      0xffffffffffffffffffffffffffffffffffffffff\n      and\n      dup2\n      mstore\n      0x20\n      add\n      swap1\n      dup2\n      mstore\n      0x20\n      add\n      0x00\n      keccak256\n      0x00\n        /* \"contracts/Token.sol\":666:694  balances[receiver] += amount */\n      dup3\n      dup3\n      sload\n      tag_40\n      swap2\n      swap1\n      tag_41\n      jump\t// in\n    tag_40:\n      swap3\n      pop\n      pop\n      dup2\n      swap1\n      sstore\n      pop\n        /* \"contracts/Token.sol\":712:746  Sent(msg.sender, receiver, amount) */\n      0x3990db2d31862302a685e8086b5755072a6e2b5b780af1ee81ece35ee3cd3345\n        /* \"contracts/Token.sol\":717:727  msg.sender */\n      caller\n        /* \"contracts/Token.sol\":729:737  receiver */\n      dup4\n        /* \"contracts/Token.sol\":739:745  amount */\n      dup4\n        /* \"contracts/Token.sol\":712:746  Sent(msg.sender, receiver, amount) */\n      mload(0x40)\n      tag_42\n      swap4\n      swap3\n      swap2\n      swap1\n      tag_43\n      jump\t// in\n    tag_42:\n      mload(0x40)\n      dup1\n      swap2\n      sub\n      swap1\n      log1\n        /* \"contracts/Token.sol\":509:754  function sender(address receiver, uint amount) public {\r... */\n    tag_36:\n      pop\n      pop\n      jump\t// out\n        /* \"contracts/Token.sol\":351:501  function mint(address receiver, uint amount) public {\r... */\n    tag_28:\n        /* \"contracts/Token.sol\":440:446  minter */\n      0x00\n      dup1\n      sload\n      swap1\n      0x0100\n      exp\n      swap1\n      div\n      0xffffffffffffffffffffffffffffffffffffffff\n      and\n        /* \"contracts/Token.sol\":417:446  payable(msg.sender) != minter */\n      0xffffffffffffffffffffffffffffffffffffffff\n      and\n        /* \"contracts/Token.sol\":425:435  msg.sender */\n      caller\n        /* \"contracts/Token.sol\":417:446  payable(msg.sender) != minter */\n      0xffffffffffffffffffffffffffffffffffffffff\n      and\n      eq\n        /* \"contracts/Token.sol\":414:455  if(payable(msg.sender) != minter) return; */\n      tag_45\n      jumpi\n        /* \"contracts/Token.sol\":448:455  return; */\n      jump(tag_44)\n        /* \"contracts/Token.sol\":414:455  if(payable(msg.sender) != minter) return; */\n    tag_45:\n        /* \"contracts/Token.sol\":487:493  amount */\n      dup1\n        /* \"contracts/Token.sol\":465:473  balances */\n      0x01\n        /* \"contracts/Token.sol\":465:483  balances[receiver] */\n      0x00\n        /* \"contracts/Token.sol\":474:482  receiver */\n      dup5\n        /* \"contracts/Token.sol\":465:483  balances[receiver] */\n      0xffffffffffffffffffffffffffffffffffffffff\n      and\n      0xffffffffffffffffffffffffffffffffffffffff\n      and\n      dup2\n      mstore\n      0x20\n      add\n      swap1\n      dup2\n      mstore\n      0x20\n      add\n      0x00\n      keccak256\n      0x00\n        /* \"contracts/Token.sol\":465:493  balances[receiver] += amount */\n      dup3\n      dup3\n      sload\n      tag_46\n      swap2\n      swap1\n      tag_41\n      jump\t// in\n    tag_46:\n      swap3\n      pop\n      pop\n      dup2\n      swap1\n      sstore\n      pop\n        /* \"contracts/Token.sol\":351:501  function mint(address receiver, uint amount) public {\r... */\n    tag_44:\n      pop\n      pop\n      jump\t// out\n        /* \"contracts/Token.sol\":893:1149  function buyToken() public payable {\r... */\n    tag_30:\n        /* \"contracts/Token.sol\":950:951  0 */\n      0x00\n        /* \"contracts/Token.sol\":942:946  rate */\n      sload(0x02)\n        /* \"contracts/Token.sol\":942:951  rate == 0 */\n      eq\n        /* \"contracts/Token.sol\":939:1142  if(rate == 0) {\r... */\n      iszero\n      tag_48\n      jumpi\n        /* \"contracts/Token.sol\":976:986  msg.sender */\n      caller\n        /* \"contracts/Token.sol\":968:996  payable(msg.sender).transfer */\n      0xffffffffffffffffffffffffffffffffffffffff\n      and\n        /* \"contracts/Token.sol\":968:1007  payable(msg.sender).transfer(msg.value) */\n      0x08fc\n        /* \"contracts/Token.sol\":997:1006  msg.value */\n      callvalue\n        /* \"contracts/Token.sol\":968:1007  payable(msg.sender).transfer(msg.value) */\n      swap1\n      dup2\n      iszero\n      mul\n      swap1\n      mload(0x40)\n      0x00\n      mload(0x40)\n      dup1\n      dup4\n      sub\n      dup2\n      dup6\n      dup9\n      dup9\n      call\n      swap4\n      pop\n      pop\n      pop\n      pop\n      iszero\n      dup1\n      iszero\n      tag_50\n      jumpi\n      returndatasize\n      0x00\n      dup1\n      returndatacopy\n      revert(0x00, returndatasize)\n    tag_50:\n      pop\n        /* \"contracts/Token.sol\":939:1142  if(rate == 0) {\r... */\n      jump(tag_51)\n    tag_48:\n        /* \"contracts/Token.sol\":1048:1054  minter */\n      0x00\n      dup1\n      sload\n      swap1\n      0x0100\n      exp\n      swap1\n      div\n      0xffffffffffffffffffffffffffffffffffffffff\n      and\n        /* \"contracts/Token.sol\":1040:1064  payable(minter).transfer */\n      0xffffffffffffffffffffffffffffffffffffffff\n      and\n        /* \"contracts/Token.sol\":1040:1075  payable(minter).transfer(msg.value) */\n      0x08fc\n        /* \"contracts/Token.sol\":1065:1074  msg.value */\n      callvalue\n        /* \"contracts/Token.sol\":1040:1075  payable(minter).transfer(msg.value) */\n      swap1\n      dup2\n      iszero\n      mul\n      swap1\n      mload(0x40)\n      0x00\n      mload(0x40)\n      dup1\n      dup4\n      sub\n      dup2\n      dup6\n      dup9\n      dup9\n      call\n      swap4\n      pop\n      pop\n      pop\n      pop\n      iszero\n      dup1\n      iszero\n      tag_53\n      jumpi\n      returndatasize\n      0x00\n      dup1\n      returndatacopy\n      revert(0x00, returndatasize)\n    tag_53:\n      pop\n        /* \"contracts/Token.sol\":1126:1130  rate */\n      sload(0x02)\n        /* \"contracts/Token.sol\":1114:1123  msg.value */\n      callvalue\n        /* \"contracts/Token.sol\":1114:1130  msg.value / rate */\n      tag_54\n      swap2\n      swap1\n      tag_55\n      jump\t// in\n    tag_54:\n        /* \"contracts/Token.sol\":1090:1098  balances */\n      0x01\n        /* \"contracts/Token.sol\":1090:1110  balances[msg.sender] */\n      0x00\n        /* \"contracts/Token.sol\":1099:1109  msg.sender */\n      caller\n        /* \"contracts/Token.sol\":1090:1110  balances[msg.sender] */\n      0xffffffffffffffffffffffffffffffffffffffff\n      and\n      0xffffffffffffffffffffffffffffffffffffffff\n      and\n      dup2\n      mstore\n      0x20\n      add\n      swap1\n      dup2\n      mstore\n      0x20\n      add\n      0x00\n      keccak256\n      0x00\n        /* \"contracts/Token.sol\":1090:1130  balances[msg.sender] += msg.value / rate */\n      dup3\n      dup3\n      sload\n      tag_56\n      swap2\n      swap1\n      tag_41\n      jump\t// in\n    tag_56:\n      swap3\n      pop\n      pop\n      dup2\n      swap1\n      sstore\n      pop\n        /* \"contracts/Token.sol\":939:1142  if(rate == 0) {\r... */\n    tag_51:\n        /* \"contracts/Token.sol\":893:1149  function buyToken() public payable {\r... */\n      jump\t// out\n        /* \"contracts/Token.sol\":762:885  function setConversionRate(uint newRate) public {\r... */\n    tag_35:\n        /* \"contracts/Token.sol\":838:844  minter */\n      0x00\n      dup1\n      sload\n      swap1\n      0x0100\n      exp\n      swap1\n      div\n      0xffffffffffffffffffffffffffffffffffffffff\n      and\n        /* \"contracts/Token.sol\":824:844  msg.sender != minter */\n      0xffffffffffffffffffffffffffffffffffffffff\n      and\n        /* \"contracts/Token.sol\":824:834  msg.sender */\n      caller\n        /* \"contracts/Token.sol\":824:844  msg.sender != minter */\n      0xffffffffffffffffffffffffffffffffffffffff\n      and\n      eq\n        /* \"contracts/Token.sol\":821:853  if(msg.sender != minter) return; */\n      tag_58\n      jumpi\n        /* \"contracts/Token.sol\":846:853  return; */\n      jump(tag_57)\n        /* \"contracts/Token.sol\":821:853  if(msg.sender != minter) return; */\n    tag_58:\n        /* \"contracts/Token.sol\":870:877  newRate */\n      dup1\n        /* \"contracts/Token.sol\":863:867  rate */\n      0x02\n        /* \"contracts/Token.sol\":863:877  rate = newRate */\n      dup2\n      swap1\n      sstore\n      pop\n        /* \"contracts/Token.sol\":762:885  function setConversionRate(uint newRate) public {\r... */\n    tag_57:\n      pop\n      jump\t// out\n        /* \"#utility.yul\":7:146   */\n    tag_60:\n        /* \"#utility.yul\":53:58   */\n      0x00\n        /* \"#utility.yul\":91:97   */\n      dup2\n        /* \"#utility.yul\":78:98   */\n      calldataload\n        /* \"#utility.yul\":69:98   */\n      swap1\n      pop\n        /* \"#utility.yul\":107:140   */\n      tag_62\n        /* \"#utility.yul\":134:139   */\n      dup2\n        /* \"#utility.yul\":107:140   */\n      tag_63\n      jump\t// in\n    tag_62:\n        /* \"#utility.yul\":7:146   */\n      swap3\n      swap2\n      pop\n      pop\n      jump\t// out\n        /* \"#utility.yul\":152:291   */\n    tag_64:\n        /* \"#utility.yul\":198:203   */\n      0x00\n        /* \"#utility.yul\":236:242   */\n      dup2\n        /* \"#utility.yul\":223:243   */\n      calldataload\n        /* \"#utility.yul\":214:243   */\n      swap1\n      pop\n        /* \"#utility.yul\":252:285   */\n      tag_66\n        /* \"#utility.yul\":279:284   */\n      dup2\n        /* \"#utility.yul\":252:285   */\n      tag_67\n      jump\t// in\n    tag_66:\n        /* \"#utility.yul\":152:291   */\n      swap3\n      swap2\n      pop\n      pop\n      jump\t// out\n        /* \"#utility.yul\":297:626   */\n    tag_16:\n        /* \"#utility.yul\":356:362   */\n      0x00\n        /* \"#utility.yul\":405:407   */\n      0x20\n        /* \"#utility.yul\":393:402   */\n      dup3\n        /* \"#utility.yul\":384:391   */\n      dup5\n        /* \"#utility.yul\":380:403   */\n      sub\n        /* \"#utility.yul\":376:408   */\n      slt\n        /* \"#utility.yul\":373:492   */\n      iszero\n      tag_69\n      jumpi\n        /* \"#utility.yul\":411:490   */\n      tag_70\n      tag_71\n      jump\t// in\n    tag_70:\n        /* \"#utility.yul\":373:492   */\n    tag_69:\n        /* \"#utility.yul\":531:532   */\n      0x00\n        /* \"#utility.yul\":556:609   */\n      tag_72\n        /* \"#utility.yul\":601:608   */\n      dup5\n        /* \"#utility.yul\":592:598   */\n      dup3\n        /* \"#utility.yul\":581:590   */\n      dup6\n        /* \"#utility.yul\":577:599   */\n      add\n        /* \"#utility.yul\":556:609   */\n      tag_60\n      jump\t// in\n    tag_72:\n        /* \"#utility.yul\":546:609   */\n      swap2\n      pop\n        /* \"#utility.yul\":502:619   */\n      pop\n        /* \"#utility.yul\":297:626   */\n      swap3\n      swap2\n      pop\n      pop\n      jump\t// out\n        /* \"#utility.yul\":632:1106   */\n    tag_23:\n        /* \"#utility.yul\":700:706   */\n      0x00\n        /* \"#utility.yul\":708:714   */\n      dup1\n        /* \"#utility.yul\":757:759   */\n      0x40\n        /* \"#utility.yul\":745:754   */\n      dup4\n        /* \"#utility.yul\":736:743   */\n      dup6\n        /* \"#utility.yul\":732:755   */\n      sub\n        /* \"#utility.yul\":728:760   */\n      slt\n        /* \"#utility.yul\":725:844   */\n      iszero\n      tag_74\n      jumpi\n        /* \"#utility.yul\":763:842   */\n      tag_75\n      tag_71\n      jump\t// in\n    tag_75:\n        /* \"#utility.yul\":725:844   */\n    tag_74:\n        /* \"#utility.yul\":883:884   */\n      0x00\n        /* \"#utility.yul\":908:961   */\n      tag_76\n        /* \"#utility.yul\":953:960   */\n      dup6\n        /* \"#utility.yul\":944:950   */\n      dup3\n        /* \"#utility.yul\":933:942   */\n      dup7\n        /* \"#utility.yul\":929:951   */\n      add\n        /* \"#utility.yul\":908:961   */\n      tag_60\n      jump\t// in\n    tag_76:\n        /* \"#utility.yul\":898:961   */\n      swap3\n      pop\n        /* \"#utility.yul\":854:971   */\n      pop\n        /* \"#utility.yul\":1010:1012   */\n      0x20\n        /* \"#utility.yul\":1036:1089   */\n      tag_77\n        /* \"#utility.yul\":1081:1088   */\n      dup6\n        /* \"#utility.yul\":1072:1078   */\n      dup3\n        /* \"#utility.yul\":1061:1070   */\n      dup7\n        /* \"#utility.yul\":1057:1079   */\n      add\n        /* \"#utility.yul\":1036:1089   */\n      tag_64\n      jump\t// in\n    tag_77:\n        /* \"#utility.yul\":1026:1089   */\n      swap2\n      pop\n        /* \"#utility.yul\":981:1099   */\n      pop\n        /* \"#utility.yul\":632:1106   */\n      swap3\n      pop\n      swap3\n      swap1\n      pop\n      jump\t// out\n        /* \"#utility.yul\":1112:1441   */\n    tag_34:\n        /* \"#utility.yul\":1171:1177   */\n      0x00\n        /* \"#utility.yul\":1220:1222   */\n      0x20\n        /* \"#utility.yul\":1208:1217   */\n      dup3\n        /* \"#utility.yul\":1199:1206   */\n      dup5\n        /* \"#utility.yul\":1195:1218   */\n      sub\n        /* \"#utility.yul\":1191:1223   */\n      slt\n        /* \"#utility.yul\":1188:1307   */\n      iszero\n      tag_79\n      jumpi\n        /* \"#utility.yul\":1226:1305   */\n      tag_80\n      tag_71\n      jump\t// in\n    tag_80:\n        /* \"#utility.yul\":1188:1307   */\n    tag_79:\n        /* \"#utility.yul\":1346:1347   */\n      0x00\n        /* \"#utility.yul\":1371:1424   */\n      tag_81\n        /* \"#utility.yul\":1416:1423   */\n      dup5\n        /* \"#utility.yul\":1407:1413   */\n      dup3\n        /* \"#utility.yul\":1396:1405   */\n      dup6\n        /* \"#utility.yul\":1392:1414   */\n      add\n        /* \"#utility.yul\":1371:1424   */\n      tag_64\n      jump\t// in\n    tag_81:\n        /* \"#utility.yul\":1361:1424   */\n      swap2\n      pop\n        /* \"#utility.yul\":1317:1434   */\n      pop\n        /* \"#utility.yul\":1112:1441   */\n      swap3\n      swap2\n      pop\n      pop\n      jump\t// out\n        /* \"#utility.yul\":1447:1589   */\n    tag_82:\n        /* \"#utility.yul\":1550:1582   */\n      tag_84\n        /* \"#utility.yul\":1576:1581   */\n      dup2\n        /* \"#utility.yul\":1550:1582   */\n      tag_85\n      jump\t// in\n    tag_84:\n        /* \"#utility.yul\":1545:1548   */\n      dup3\n        /* \"#utility.yul\":1538:1583   */\n      mstore\n        /* \"#utility.yul\":1447:1589   */\n      pop\n      pop\n      jump\t// out\n        /* \"#utility.yul\":1595:1713   */\n    tag_86:\n        /* \"#utility.yul\":1682:1706   */\n      tag_88\n        /* \"#utility.yul\":1700:1705   */\n      dup2\n        /* \"#utility.yul\":1682:1706   */\n      tag_89\n      jump\t// in\n    tag_88:\n        /* \"#utility.yul\":1677:1680   */\n      dup3\n        /* \"#utility.yul\":1670:1707   */\n      mstore\n        /* \"#utility.yul\":1595:1713   */\n      pop\n      pop\n      jump\t// out\n        /* \"#utility.yul\":1719:1837   */\n    tag_90:\n        /* \"#utility.yul\":1806:1830   */\n      tag_92\n        /* \"#utility.yul\":1824:1829   */\n      dup2\n        /* \"#utility.yul\":1806:1830   */\n      tag_93\n      jump\t// in\n    tag_92:\n        /* \"#utility.yul\":1801:1804   */\n      dup3\n        /* \"#utility.yul\":1794:1831   */\n      mstore\n        /* \"#utility.yul\":1719:1837   */\n      pop\n      pop\n      jump\t// out\n        /* \"#utility.yul\":1843:2097   */\n    tag_12:\n        /* \"#utility.yul\":1952:1956   */\n      0x00\n        /* \"#utility.yul\":1990:1992   */\n      0x20\n        /* \"#utility.yul\":1979:1988   */\n      dup3\n        /* \"#utility.yul\":1975:1993   */\n      add\n        /* \"#utility.yul\":1967:1993   */\n      swap1\n      pop\n        /* \"#utility.yul\":2003:2090   */\n      tag_95\n        /* \"#utility.yul\":2087:2088   */\n      0x00\n        /* \"#utility.yul\":2076:2085   */\n      dup4\n        /* \"#utility.yul\":2072:2089   */\n      add\n        /* \"#utility.yul\":2063:2069   */\n      dup5\n        /* \"#utility.yul\":2003:2090   */\n      tag_82\n      jump\t// in\n    tag_95:\n        /* \"#utility.yul\":1843:2097   */\n      swap3\n      swap2\n      pop\n      pop\n      jump\t// out\n        /* \"#utility.yul\":2103:2545   */\n    tag_43:\n        /* \"#utility.yul\":2252:2256   */\n      0x00\n        /* \"#utility.yul\":2290:2292   */\n      0x60\n        /* \"#utility.yul\":2279:2288   */\n      dup3\n        /* \"#utility.yul\":2275:2293   */\n      add\n        /* \"#utility.yul\":2267:2293   */\n      swap1\n      pop\n        /* \"#utility.yul\":2303:2374   */\n      tag_97\n        /* \"#utility.yul\":2371:2372   */\n      0x00\n        /* \"#utility.yul\":2360:2369   */\n      dup4\n        /* \"#utility.yul\":2356:2373   */\n      add\n        /* \"#utility.yul\":2347:2353   */\n      dup7\n        /* \"#utility.yul\":2303:2374   */\n      tag_86\n      jump\t// in\n    tag_97:\n        /* \"#utility.yul\":2384:2456   */\n      tag_98\n        /* \"#utility.yul\":2452:2454   */\n      0x20\n        /* \"#utility.yul\":2441:2450   */\n      dup4\n        /* \"#utility.yul\":2437:2455   */\n      add\n        /* \"#utility.yul\":2428:2434   */\n      dup6\n        /* \"#utility.yul\":2384:2456   */\n      tag_86\n      jump\t// in\n    tag_98:\n        /* \"#utility.yul\":2466:2538   */\n      tag_99\n        /* \"#utility.yul\":2534:2536   */\n      0x40\n        /* \"#utility.yul\":2523:2532   */\n      dup4\n        /* \"#utility.yul\":2519:2537   */\n      add\n        /* \"#utility.yul\":2510:2516   */\n      dup5\n        /* \"#utility.yul\":2466:2538   */\n      tag_90\n      jump\t// in\n    tag_99:\n        /* \"#utility.yul\":2103:2545   */\n      swap5\n      swap4\n      pop\n      pop\n      pop\n      pop\n      jump\t// out\n        /* \"#utility.yul\":2551:2773   */\n    tag_19:\n        /* \"#utility.yul\":2644:2648   */\n      0x00\n        /* \"#utility.yul\":2682:2684   */\n      0x20\n        /* \"#utility.yul\":2671:2680   */\n      dup3\n        /* \"#utility.yul\":2667:2685   */\n      add\n        /* \"#utility.yul\":2659:2685   */\n      swap1\n      pop\n        /* \"#utility.yul\":2695:2766   */\n      tag_101\n        /* \"#utility.yul\":2763:2764   */\n      0x00\n        /* \"#utility.yul\":2752:2761   */\n      dup4\n        /* \"#utility.yul\":2748:2765   */\n      add\n        /* \"#utility.yul\":2739:2745   */\n      dup5\n        /* \"#utility.yul\":2695:2766   */\n      tag_90\n      jump\t// in\n    tag_101:\n        /* \"#utility.yul\":2551:2773   */\n      swap3\n      swap2\n      pop\n      pop\n      jump\t// out\n        /* \"#utility.yul\":2860:3165   */\n    tag_41:\n        /* \"#utility.yul\":2900:2903   */\n      0x00\n        /* \"#utility.yul\":2919:2939   */\n      tag_105\n        /* \"#utility.yul\":2937:2938   */\n      dup3\n        /* \"#utility.yul\":2919:2939   */\n      tag_93\n      jump\t// in\n    tag_105:\n        /* \"#utility.yul\":2914:2939   */\n      swap2\n      pop\n        /* \"#utility.yul\":2953:2973   */\n      tag_106\n        /* \"#utility.yul\":2971:2972   */\n      dup4\n        /* \"#utility.yul\":2953:2973   */\n      tag_93\n      jump\t// in\n    tag_106:\n        /* \"#utility.yul\":2948:2973   */\n      swap3\n      pop\n        /* \"#utility.yul\":3107:3108   */\n      dup3\n        /* \"#utility.yul\":3039:3105   */\n      0xffffffffffffffffffffffffffffffffffffffffffffffffffffffffffffffff\n        /* \"#utility.yul\":3035:3109   */\n      sub\n        /* \"#utility.yul\":3032:3033   */\n      dup3\n        /* \"#utility.yul\":3029:3110   */\n      gt\n        /* \"#utility.yul\":3026:3133   */\n      iszero\n      tag_107\n      jumpi\n        /* \"#utility.yul\":3113:3131   */\n      tag_108\n      tag_109\n      jump\t// in\n    tag_108:\n        /* \"#utility.yul\":3026:3133   */\n    tag_107:\n        /* \"#utility.yul\":3157:3158   */\n      dup3\n        /* \"#utility.yul\":3154:3155   */\n      dup3\n        /* \"#utility.yul\":3150:3159   */\n      add\n        /* \"#utility.yul\":3143:3159   */\n      swap1\n      pop\n        /* \"#utility.yul\":2860:3165   */\n      swap3\n      swap2\n      pop\n      pop\n      jump\t// out\n        /* \"#utility.yul\":3171:3356   */\n    tag_55:\n        /* \"#utility.yul\":3211:3212   */\n      0x00\n        /* \"#utility.yul\":3228:3248   */\n      tag_111\n        /* \"#utility.yul\":3246:3247   */\n      dup3\n        /* \"#utility.yul\":3228:3248   */\n      tag_93\n      jump\t// in\n    tag_111:\n        /* \"#utility.yul\":3223:3248   */\n      swap2\n      pop\n        /* \"#utility.yul\":3262:3282   */\n      tag_112\n        /* \"#utility.yul\":3280:3281   */\n      dup4\n        /* \"#utility.yul\":3262:3282   */\n      tag_93\n      jump\t// in\n    tag_112:\n        /* \"#utility.yul\":3257:3282   */\n      swap3\n      pop\n        /* \"#utility.yul\":3301:3302   */\n      dup3\n        /* \"#utility.yul\":3291:3326   */\n      tag_113\n      jumpi\n        /* \"#utility.yul\":3306:3324   */\n      tag_114\n      tag_115\n      jump\t// in\n    tag_114:\n        /* \"#utility.yul\":3291:3326   */\n    tag_113:\n        /* \"#utility.yul\":3348:3349   */\n      dup3\n        /* \"#utility.yul\":3345:3346   */\n      dup3\n        /* \"#utility.yul\":3341:3350   */\n      div\n        /* \"#utility.yul\":3336:3350   */\n      swap1\n      pop\n        /* \"#utility.yul\":3171:3356   */\n      swap3\n      swap2\n      pop\n      pop\n      jump\t// out\n        /* \"#utility.yul\":3362:3553   */\n    tag_39:\n        /* \"#utility.yul\":3402:3406   */\n      0x00\n        /* \"#utility.yul\":3422:3442   */\n      tag_117\n        /* \"#utility.yul\":3440:3441   */\n      dup3\n        /* \"#utility.yul\":3422:3442   */\n      tag_93\n      jump\t// in\n    tag_117:\n        /* \"#utility.yul\":3417:3442   */\n      swap2\n      pop\n        /* \"#utility.yul\":3456:3476   */\n      tag_118\n        /* \"#utility.yul\":3474:3475   */\n      dup4\n        /* \"#utility.yul\":3456:3476   */\n      tag_93\n      jump\t// in\n    tag_118:\n        /* \"#utility.yul\":3451:3476   */\n      swap3\n      pop\n        /* \"#utility.yul\":3495:3496   */\n      dup3\n        /* \"#utility.yul\":3492:3493   */\n      dup3\n        /* \"#utility.yul\":3489:3497   */\n      lt\n        /* \"#utility.yul\":3486:3520   */\n      iszero\n      tag_119\n      jumpi\n        /* \"#utility.yul\":3500:3518   */\n      tag_120\n      tag_109\n      jump\t// in\n    tag_120:\n        /* \"#utility.yul\":3486:3520   */\n    tag_119:\n        /* \"#utility.yul\":3545:3546   */\n      dup3\n        /* \"#utility.yul\":3542:3543   */\n      dup3\n        /* \"#utility.yul\":3538:3547   */\n      sub\n        /* \"#utility.yul\":3530:3547   */\n      swap1\n      pop\n        /* \"#utility.yul\":3362:3553   */\n      swap3\n      swap2\n      pop\n      pop\n      jump\t// out\n        /* \"#utility.yul\":3559:3655   */\n    tag_89:\n        /* \"#utility.yul\":3596:3603   */\n      0x00\n        /* \"#utility.yul\":3625:3649   */\n      tag_122\n        /* \"#utility.yul\":3643:3648   */\n      dup3\n        /* \"#utility.yul\":3625:3649   */\n      tag_123\n      jump\t// in\n    tag_122:\n        /* \"#utility.yul\":3614:3649   */\n      swap1\n      pop\n        /* \"#utility.yul\":3559:3655   */\n      swap2\n      swap1\n      pop\n      jump\t// out\n        /* \"#utility.yul\":3661:3765   */\n    tag_85:\n        /* \"#utility.yul\":3706:3713   */\n      0x00\n        /* \"#utility.yul\":3735:3759   */\n      tag_125\n        /* \"#utility.yul\":3753:3758   */\n      dup3\n        /* \"#utility.yul\":3735:3759   */\n      tag_123\n      jump\t// in\n    tag_125:\n        /* \"#utility.yul\":3724:3759   */\n      swap1\n      pop\n        /* \"#utility.yul\":3661:3765   */\n      swap2\n      swap1\n      pop\n      jump\t// out\n        /* \"#utility.yul\":3771:3897   */\n    tag_123:\n        /* \"#utility.yul\":3808:3815   */\n      0x00\n        /* \"#utility.yul\":3848:3890   */\n      0xffffffffffffffffffffffffffffffffffffffff\n        /* \"#utility.yul\":3841:3846   */\n      dup3\n        /* \"#utility.yul\":3837:3891   */\n      and\n        /* \"#utility.yul\":3826:3891   */\n      swap1\n      pop\n        /* \"#utility.yul\":3771:3897   */\n      swap2\n      swap1\n      pop\n      jump\t// out\n        /* \"#utility.yul\":3903:3980   */\n    tag_93:\n        /* \"#utility.yul\":3940:3947   */\n      0x00\n        /* \"#utility.yul\":3969:3974   */\n      dup2\n        /* \"#utility.yul\":3958:3974   */\n      swap1\n      pop\n        /* \"#utility.yul\":3903:3980   */\n      swap2\n      swap1\n      pop\n      jump\t// out\n        /* \"#utility.yul\":3986:4166   */\n    tag_109:\n        /* \"#utility.yul\":4034:4111   */\n      0x4e487b7100000000000000000000000000000000000000000000000000000000\n        /* \"#utility.yul\":4031:4032   */\n      0x00\n        /* \"#utility.yul\":4024:4112   */\n      mstore\n        /* \"#utility.yul\":4131:4135   */\n      0x11\n        /* \"#utility.yul\":4128:4129   */\n      0x04\n        /* \"#utility.yul\":4121:4136   */\n      mstore\n        /* \"#utility.yul\":4155:4159   */\n      0x24\n        /* \"#utility.yul\":4152:4153   */\n      0x00\n        /* \"#utility.yul\":4145:4160   */\n      revert\n        /* \"#utility.yul\":4172:4352   */\n    tag_115:\n        /* \"#utility.yul\":4220:4297   */\n      0x4e487b7100000000000000000000000000000000000000000000000000000000\n        /* \"#utility.yul\":4217:4218   */\n      0x00\n        /* \"#utility.yul\":4210:4298   */\n      mstore\n        /* \"#utility.yul\":4317:4321   */\n      0x12\n        /* \"#utility.yul\":4314:4315   */\n      0x04\n        /* \"#utility.yul\":4307:4322   */\n      mstore\n        /* \"#utility.yul\":4341:4345   */\n      0x24\n        /* \"#utility.yul\":4338:4339   */\n      0x00\n        /* \"#utility.yul\":4331:4346   */\n      revert\n        /* \"#utility.yul\":4481:4598   */\n    tag_71:\n        /* \"#utility.yul\":4590:4591   */\n      0x00\n        /* \"#utility.yul\":4587:4588   */\n      dup1\n        /* \"#utility.yul\":4580:4592   */\n      revert\n        /* \"#utility.yul\":4604:4726   */\n    tag_63:\n        /* \"#utility.yul\":4677:4701   */\n      tag_134\n        /* \"#utility.yul\":4695:4700   */\n      dup2\n        /* \"#utility.yul\":4677:4701   */\n      tag_89\n      jump\t// in\n    tag_134:\n        /* \"#utility.yul\":4670:4675   */\n      dup2\n        /* \"#utility.yul\":4667:4702   */\n      eq\n        /* \"#utility.yul\":4657:4720   */\n      tag_135\n      jumpi\n        /* \"#utility.yul\":4716:4717   */\n      0x00\n        /* \"#utility.yul\":4713:4714   */\n      dup1\n        /* \"#utility.yul\":4706:4718   */\n      revert\n        /* \"#utility.yul\":4657:4720   */\n    tag_135:\n        /* \"#utility.yul\":4604:4726   */\n      pop\n      jump\t// out\n        /* \"#utility.yul\":4732:4854   */\n    tag_67:\n        /* \"#utility.yul\":4805:4829   */\n      tag_137\n        /* \"#utility.yul\":4823:4828   */\n      dup2\n        /* \"#utility.yul\":4805:4829   */\n      tag_93\n      jump\t// in\n    tag_137:\n        /* \"#utility.yul\":4798:4803   */\n      dup2\n        /* \"#utility.yul\":4795:4830   */\n      eq\n        /* \"#utility.yul\":4785:4848   */\n      tag_138\n      jumpi\n        /* \"#utility.yul\":4844:4845   */\n      0x00\n        /* \"#utility.yul\":4841:4842   */\n      dup1\n        /* \"#utility.yul\":4834:4846   */\n      revert\n        /* \"#utility.yul\":4785:4848   */\n    tag_138:\n        /* \"#utility.yul\":4732:4854   */\n      pop\n      jump\t// out\n\n    auxdata: 0xa26469706673582212205fb9bc454530db4387d5e056fc393d917b5a418aeba7f66c05744d9fcaf6be7964736f6c63430008070033\n}\n",
				"bytecode": {
					"linkReferences": {},
					"object": "608060405234801561001057600080fd5b50336000806101000a81548173ffffffffffffffffffffffffffffffffffffffff021916908373ffffffffffffffffffffffffffffffffffffffff1602179055506000600281905550610823806100686000396000f3fe6080604052600436106100555760003560e01c8063075461721461005a57806327e235e31461008557806338daa915146100c257806340c10f19146100eb578063a482171914610114578063d2e804941461011e575b600080fd5b34801561006657600080fd5b5061006f610147565b60405161007c91906105e6565b60405180910390f35b34801561009157600080fd5b506100ac60048036038101906100a7919061051f565b61016b565b6040516100b99190610638565b60405180910390f35b3480156100ce57600080fd5b506100e960048036038101906100e4919061054c565b610183565b005b3480156100f757600080fd5b50610112600480360381019061010d919061054c565b6102bb565b005b61011c61036e565b005b34801561012a57600080fd5b506101456004803603810190610140919061058c565b610492565b005b60008054906101000a900473ffffffffffffffffffffffffffffffffffffffff1681565b60016020528060005260406000206000915090505481565b80600160003373ffffffffffffffffffffffffffffffffffffffff1673ffffffffffffffffffffffffffffffffffffffff1681526020019081526020016000205410156101cf576102b7565b80600160003373ffffffffffffffffffffffffffffffffffffffff1673ffffffffffffffffffffffffffffffffffffffff168152602001908152602001600020600082825461021e91906106da565b9250508190555080600160008473ffffffffffffffffffffffffffffffffffffffff1673ffffffffffffffffffffffffffffffffffffffff16815260200190815260200160002060008282546102749190610653565b925050819055507f3990db2d31862302a685e8086b5755072a6e2b5b780af1ee81ece35ee3cd33453383836040516102ae93929190610601565b60405180910390a15b5050565b60008054906101000a900473ffffffffffffffffffffffffffffffffffffffff1673ffffffffffffffffffffffffffffffffffffffff163373ffffffffffffffffffffffffffffffffffffffff16146103135761036a565b80600160008473ffffffffffffffffffffffffffffffffffffffff1673ffffffffffffffffffffffffffffffffffffffff16815260200190815260200160002060008282546103629190610653565b925050819055505b5050565b600060025414156103c5573373ffffffffffffffffffffffffffffffffffffffff166108fc349081150290604051600060405180830381858888f193505050501580156103bf573d6000803e3d6000fd5b50610490565b60008054906101000a900473ffffffffffffffffffffffffffffffffffffffff1673ffffffffffffffffffffffffffffffffffffffff166108fc349081150290604051600060405180830381858888f1935050505015801561042b573d6000803e3d6000fd5b506002543461043a91906106a9565b600160003373ffffffffffffffffffffffffffffffffffffffff1673ffffffffffffffffffffffffffffffffffffffff16815260200190815260200160002060008282546104889190610653565b925050819055505b565b60008054906101000a900473ffffffffffffffffffffffffffffffffffffffff1673ffffffffffffffffffffffffffffffffffffffff163373ffffffffffffffffffffffffffffffffffffffff16146104ea576104f2565b806002819055505b50565b600081359050610504816107bf565b92915050565b600081359050610519816107d6565b92915050565b600060208284031215610535576105346107ba565b5b6000610543848285016104f5565b91505092915050565b60008060408385031215610563576105626107ba565b5b6000610571858286016104f5565b92505060206105828582860161050a565b9150509250929050565b6000602082840312156105a2576105a16107ba565b5b60006105b08482850161050a565b91505092915050565b6105c281610720565b82525050565b6105d18161070e565b82525050565b6105e081610752565b82525050565b60006020820190506105fb60008301846105b9565b92915050565b600060608201905061061660008301866105c8565b61062360208301856105c8565b61063060408301846105d7565b949350505050565b600060208201905061064d60008301846105d7565b92915050565b600061065e82610752565b915061066983610752565b9250827fffffffffffffffffffffffffffffffffffffffffffffffffffffffffffffffff0382111561069e5761069d61075c565b5b828201905092915050565b60006106b482610752565b91506106bf83610752565b9250826106cf576106ce61078b565b5b828204905092915050565b60006106e582610752565b91506106f083610752565b9250828210156107035761070261075c565b5b828203905092915050565b600061071982610732565b9050919050565b600061072b82610732565b9050919050565b600073ffffffffffffffffffffffffffffffffffffffff82169050919050565b6000819050919050565b7f4e487b7100000000000000000000000000000000000000000000000000000000600052601160045260246000fd5b7f4e487b7100000000000000000000000000000000000000000000000000000000600052601260045260246000fd5b600080fd5b6107c88161070e565b81146107d357600080fd5b50565b6107df81610752565b81146107ea57600080fd5b5056fea26469706673582212205fb9bc454530db4387d5e056fc393d917b5a418aeba7f66c05744d9fcaf6be7964736f6c63430008070033",
					"opcodes": "PUSH1 0x80 PUSH1 0x40 MSTORE CALLVALUE DUP1 ISZERO PUSH2 0x10 JUMPI PUSH1 0x0 DUP1 REVERT JUMPDEST POP CALLER PUSH1 0x0 DUP1 PUSH2 0x100 EXP DUP2 SLOAD DUP2 PUSH20 0xFFFFFFFFFFFFFFFFFFFFFFFFFFFFFFFFFFFFFFFF MUL NOT AND SWAP1 DUP4 PUSH20 0xFFFFFFFFFFFFFFFFFFFFFFFFFFFFFFFFFFFFFFFF AND MUL OR SWAP1 SSTORE POP PUSH1 0x0 PUSH1 0x2 DUP2 SWAP1 SSTORE POP PUSH2 0x823 DUP1 PUSH2 0x68 PUSH1 0x0 CODECOPY PUSH1 0x0 RETURN INVALID PUSH1 0x80 PUSH1 0x40 MSTORE PUSH1 0x4 CALLDATASIZE LT PUSH2 0x55 JUMPI PUSH1 0x0 CALLDATALOAD PUSH1 0xE0 SHR DUP1 PUSH4 0x7546172 EQ PUSH2 0x5A JUMPI DUP1 PUSH4 0x27E235E3 EQ PUSH2 0x85 JUMPI DUP1 PUSH4 0x38DAA915 EQ PUSH2 0xC2 JUMPI DUP1 PUSH4 0x40C10F19 EQ PUSH2 0xEB JUMPI DUP1 PUSH4 0xA4821719 EQ PUSH2 0x114 JUMPI DUP1 PUSH4 0xD2E80494 EQ PUSH2 0x11E JUMPI JUMPDEST PUSH1 0x0 DUP1 REVERT JUMPDEST CALLVALUE DUP1 ISZERO PUSH2 0x66 JUMPI PUSH1 0x0 DUP1 REVERT JUMPDEST POP PUSH2 0x6F PUSH2 0x147 JUMP JUMPDEST PUSH1 0x40 MLOAD PUSH2 0x7C SWAP2 SWAP1 PUSH2 0x5E6 JUMP JUMPDEST PUSH1 0x40 MLOAD DUP1 SWAP2 SUB SWAP1 RETURN JUMPDEST CALLVALUE DUP1 ISZERO PUSH2 0x91 JUMPI PUSH1 0x0 DUP1 REVERT JUMPDEST POP PUSH2 0xAC PUSH1 0x4 DUP1 CALLDATASIZE SUB DUP2 ADD SWAP1 PUSH2 0xA7 SWAP2 SWAP1 PUSH2 0x51F JUMP JUMPDEST PUSH2 0x16B JUMP JUMPDEST PUSH1 0x40 MLOAD PUSH2 0xB9 SWAP2 SWAP1 PUSH2 0x638 JUMP JUMPDEST PUSH1 0x40 MLOAD DUP1 SWAP2 SUB SWAP1 RETURN JUMPDEST CALLVALUE DUP1 ISZERO PUSH2 0xCE JUMPI PUSH1 0x0 DUP1 REVERT JUMPDEST POP PUSH2 0xE9 PUSH1 0x4 DUP1 CALLDATASIZE SUB DUP2 ADD SWAP1 PUSH2 0xE4 SWAP2 SWAP1 PUSH2 0x54C JUMP JUMPDEST PUSH2 0x183 JUMP JUMPDEST STOP JUMPDEST CALLVALUE DUP1 ISZERO PUSH2 0xF7 JUMPI PUSH1 0x0 DUP1 REVERT JUMPDEST POP PUSH2 0x112 PUSH1 0x4 DUP1 CALLDATASIZE SUB DUP2 ADD SWAP1 PUSH2 0x10D SWAP2 SWAP1 PUSH2 0x54C JUMP JUMPDEST PUSH2 0x2BB JUMP JUMPDEST STOP JUMPDEST PUSH2 0x11C PUSH2 0x36E JUMP JUMPDEST STOP JUMPDEST CALLVALUE DUP1 ISZERO PUSH2 0x12A JUMPI PUSH1 0x0 DUP1 REVERT JUMPDEST POP PUSH2 0x145 PUSH1 0x4 DUP1 CALLDATASIZE SUB DUP2 ADD SWAP1 PUSH2 0x140 SWAP2 SWAP1 PUSH2 0x58C JUMP JUMPDEST PUSH2 0x492 JUMP JUMPDEST STOP JUMPDEST PUSH1 0x0 DUP1 SLOAD SWAP1 PUSH2 0x100 EXP SWAP1 DIV PUSH20 0xFFFFFFFFFFFFFFFFFFFFFFFFFFFFFFFFFFFFFFFF AND DUP2 JUMP JUMPDEST PUSH1 0x1 PUSH1 0x20 MSTORE DUP1 PUSH1 0x0 MSTORE PUSH1 0x40 PUSH1 0x0 KECCAK256 PUSH1 0x0 SWAP2 POP SWAP1 POP SLOAD DUP2 JUMP JUMPDEST DUP1 PUSH1 0x1 PUSH1 0x0 CALLER PUSH20 0xFFFFFFFFFFFFFFFFFFFFFFFFFFFFFFFFFFFFFFFF AND PUSH20 0xFFFFFFFFFFFFFFFFFFFFFFFFFFFFFFFFFFFFFFFF AND DUP2 MSTORE PUSH1 0x20 ADD SWAP1 DUP2 MSTORE PUSH1 0x20 ADD PUSH1 0x0 KECCAK256 SLOAD LT ISZERO PUSH2 0x1CF JUMPI PUSH2 0x2B7 JUMP JUMPDEST DUP1 PUSH1 0x1 PUSH1 0x0 CALLER PUSH20 0xFFFFFFFFFFFFFFFFFFFFFFFFFFFFFFFFFFFFFFFF AND PUSH20 0xFFFFFFFFFFFFFFFFFFFFFFFFFFFFFFFFFFFFFFFF AND DUP2 MSTORE PUSH1 0x20 ADD SWAP1 DUP2 MSTORE PUSH1 0x20 ADD PUSH1 0x0 KECCAK256 PUSH1 0x0 DUP3 DUP3 SLOAD PUSH2 0x21E SWAP2 SWAP1 PUSH2 0x6DA JUMP JUMPDEST SWAP3 POP POP DUP2 SWAP1 SSTORE POP DUP1 PUSH1 0x1 PUSH1 0x0 DUP5 PUSH20 0xFFFFFFFFFFFFFFFFFFFFFFFFFFFFFFFFFFFFFFFF AND PUSH20 0xFFFFFFFFFFFFFFFFFFFFFFFFFFFFFFFFFFFFFFFF AND DUP2 MSTORE PUSH1 0x20 ADD SWAP1 DUP2 MSTORE PUSH1 0x20 ADD PUSH1 0x0 KECCAK256 PUSH1 0x0 DUP3 DUP3 SLOAD PUSH2 0x274 SWAP2 SWAP1 PUSH2 0x653 JUMP JUMPDEST SWAP3 POP POP DUP2 SWAP1 SSTORE POP PUSH32 0x3990DB2D31862302A685E8086B5755072A6E2B5B780AF1EE81ECE35EE3CD3345 CALLER DUP4 DUP4 PUSH1 0x40 MLOAD PUSH2 0x2AE SWAP4 SWAP3 SWAP2 SWAP1 PUSH2 0x601 JUMP JUMPDEST PUSH1 0x40 MLOAD DUP1 SWAP2 SUB SWAP1 LOG1 JUMPDEST POP POP JUMP JUMPDEST PUSH1 0x0 DUP1 SLOAD SWAP1 PUSH2 0x100 EXP SWAP1 DIV PUSH20 0xFFFFFFFFFFFFFFFFFFFFFFFFFFFFFFFFFFFFFFFF AND PUSH20 0xFFFFFFFFFFFFFFFFFFFFFFFFFFFFFFFFFFFFFFFF AND CALLER PUSH20 0xFFFFFFFFFFFFFFFFFFFFFFFFFFFFFFFFFFFFFFFF AND EQ PUSH2 0x313 JUMPI PUSH2 0x36A JUMP JUMPDEST DUP1 PUSH1 0x1 PUSH1 0x0 DUP5 PUSH20 0xFFFFFFFFFFFFFFFFFFFFFFFFFFFFFFFFFFFFFFFF AND PUSH20 0xFFFFFFFFFFFFFFFFFFFFFFFFFFFFFFFFFFFFFFFF AND DUP2 MSTORE PUSH1 0x20 ADD SWAP1 DUP2 MSTORE PUSH1 0x20 ADD PUSH1 0x0 KECCAK256 PUSH1 0x0 DUP3 DUP3 SLOAD PUSH2 0x362 SWAP2 SWAP1 PUSH2 0x653 JUMP JUMPDEST SWAP3 POP POP DUP2 SWAP1 SSTORE POP JUMPDEST POP POP JUMP JUMPDEST PUSH1 0x0 PUSH1 0x2 SLOAD EQ ISZERO PUSH2 0x3C5 JUMPI CALLER PUSH20 0xFFFFFFFFFFFFFFFFFFFFFFFFFFFFFFFFFFFFFFFF AND PUSH2 0x8FC CALLVALUE SWAP1 DUP2 ISZERO MUL SWAP1 PUSH1 0x40 MLOAD PUSH1 0x0 PUSH1 0x40 MLOAD DUP1 DUP4 SUB DUP2 DUP6 DUP9 DUP9 CALL SWAP4 POP POP POP POP ISZERO DUP1 ISZERO PUSH2 0x3BF JUMPI RETURNDATASIZE PUSH1 0x0 DUP1 RETURNDATACOPY RETURNDATASIZE PUSH1 0x0 REVERT JUMPDEST POP PUSH2 0x490 JUMP JUMPDEST PUSH1 0x0 DUP1 SLOAD SWAP1 PUSH2 0x100 EXP SWAP1 DIV PUSH20 0xFFFFFFFFFFFFFFFFFFFFFFFFFFFFFFFFFFFFFFFF AND PUSH20 0xFFFFFFFFFFFFFFFFFFFFFFFFFFFFFFFFFFFFFFFF AND PUSH2 0x8FC CALLVALUE SWAP1 DUP2 ISZERO MUL SWAP1 PUSH1 0x40 MLOAD PUSH1 0x0 PUSH1 0x40 MLOAD DUP1 DUP4 SUB DUP2 DUP6 DUP9 DUP9 CALL SWAP4 POP POP POP POP ISZERO DUP1 ISZERO PUSH2 0x42B JUMPI RETURNDATASIZE PUSH1 0x0 DUP1 RETURNDATACOPY RETURNDATASIZE PUSH1 0x0 REVERT JUMPDEST POP PUSH1 0x2 SLOAD CALLVALUE PUSH2 0x43A SWAP2 SWAP1 PUSH2 0x6A9 JUMP JUMPDEST PUSH1 0x1 PUSH1 0x0 CALLER PUSH20 0xFFFFFFFFFFFFFFFFFFFFFFFFFFFFFFFFFFFFFFFF AND PUSH20 0xFFFFFFFFFFFFFFFFFFFFFFFFFFFFFFFFFFFFFFFF AND DUP2 MSTORE PUSH1 0x20 ADD SWAP1 DUP2 MSTORE PUSH1 0x20 ADD PUSH1 0x0 KECCAK256 PUSH1 0x0 DUP3 DUP3 SLOAD PUSH2 0x488 SWAP2 SWAP1 PUSH2 0x653 JUMP JUMPDEST SWAP3 POP POP DUP2 SWAP1 SSTORE POP JUMPDEST JUMP JUMPDEST PUSH1 0x0 DUP1 SLOAD SWAP1 PUSH2 0x100 EXP SWAP1 DIV PUSH20 0xFFFFFFFFFFFFFFFFFFFFFFFFFFFFFFFFFFFFFFFF AND PUSH20 0xFFFFFFFFFFFFFFFFFFFFFFFFFFFFFFFFFFFFFFFF AND CALLER PUSH20 0xFFFFFFFFFFFFFFFFFFFFFFFFFFFFFFFFFFFFFFFF AND EQ PUSH2 0x4EA JUMPI PUSH2 0x4F2 JUMP JUMPDEST DUP1 PUSH1 0x2 DUP2 SWAP1 SSTORE POP JUMPDEST POP JUMP JUMPDEST PUSH1 0x0 DUP2 CALLDATALOAD SWAP1 POP PUSH2 0x504 DUP2 PUSH2 0x7BF JUMP JUMPDEST SWAP3 SWAP2 POP POP JUMP JUMPDEST PUSH1 0x0 DUP2 CALLDATALOAD SWAP1 POP PUSH2 0x519 DUP2 PUSH2 0x7D6 JUMP JUMPDEST SWAP3 SWAP2 POP POP JUMP JUMPDEST PUSH1 0x0 PUSH1 0x20 DUP3 DUP5 SUB SLT ISZERO PUSH2 0x535 JUMPI PUSH2 0x534 PUSH2 0x7BA JUMP JUMPDEST JUMPDEST PUSH1 0x0 PUSH2 0x543 DUP5 DUP3 DUP6 ADD PUSH2 0x4F5 JUMP JUMPDEST SWAP2 POP POP SWAP3 SWAP2 POP POP JUMP JUMPDEST PUSH1 0x0 DUP1 PUSH1 0x40 DUP4 DUP6 SUB SLT ISZERO PUSH2 0x563 JUMPI PUSH2 0x562 PUSH2 0x7BA JUMP JUMPDEST JUMPDEST PUSH1 0x0 PUSH2 0x571 DUP6 DUP3 DUP7 ADD PUSH2 0x4F5 JUMP JUMPDEST SWAP3 POP POP PUSH1 0x20 PUSH2 0x582 DUP6 DUP3 DUP7 ADD PUSH2 0x50A JUMP JUMPDEST SWAP2 POP POP SWAP3 POP SWAP3 SWAP1 POP JUMP JUMPDEST PUSH1 0x0 PUSH1 0x20 DUP3 DUP5 SUB SLT ISZERO PUSH2 0x5A2 JUMPI PUSH2 0x5A1 PUSH2 0x7BA JUMP JUMPDEST JUMPDEST PUSH1 0x0 PUSH2 0x5B0 DUP5 DUP3 DUP6 ADD PUSH2 0x50A JUMP JUMPDEST SWAP2 POP POP SWAP3 SWAP2 POP POP JUMP JUMPDEST PUSH2 0x5C2 DUP2 PUSH2 0x720 JUMP JUMPDEST DUP3 MSTORE POP POP JUMP JUMPDEST PUSH2 0x5D1 DUP2 PUSH2 0x70E JUMP JUMPDEST DUP3 MSTORE POP POP JUMP JUMPDEST PUSH2 0x5E0 DUP2 PUSH2 0x752 JUMP JUMPDEST DUP3 MSTORE POP POP JUMP JUMPDEST PUSH1 0x0 PUSH1 0x20 DUP3 ADD SWAP1 POP PUSH2 0x5FB PUSH1 0x0 DUP4 ADD DUP5 PUSH2 0x5B9 JUMP JUMPDEST SWAP3 SWAP2 POP POP JUMP JUMPDEST PUSH1 0x0 PUSH1 0x60 DUP3 ADD SWAP1 POP PUSH2 0x616 PUSH1 0x0 DUP4 ADD DUP7 PUSH2 0x5C8 JUMP JUMPDEST PUSH2 0x623 PUSH1 0x20 DUP4 ADD DUP6 PUSH2 0x5C8 JUMP JUMPDEST PUSH2 0x630 PUSH1 0x40 DUP4 ADD DUP5 PUSH2 0x5D7 JUMP JUMPDEST SWAP5 SWAP4 POP POP POP POP JUMP JUMPDEST PUSH1 0x0 PUSH1 0x20 DUP3 ADD SWAP1 POP PUSH2 0x64D PUSH1 0x0 DUP4 ADD DUP5 PUSH2 0x5D7 JUMP JUMPDEST SWAP3 SWAP2 POP POP JUMP JUMPDEST PUSH1 0x0 PUSH2 0x65E DUP3 PUSH2 0x752 JUMP JUMPDEST SWAP2 POP PUSH2 0x669 DUP4 PUSH2 0x752 JUMP JUMPDEST SWAP3 POP DUP3 PUSH32 0xFFFFFFFFFFFFFFFFFFFFFFFFFFFFFFFFFFFFFFFFFFFFFFFFFFFFFFFFFFFFFFFF SUB DUP3 GT ISZERO PUSH2 0x69E JUMPI PUSH2 0x69D PUSH2 0x75C JUMP JUMPDEST JUMPDEST DUP3 DUP3 ADD SWAP1 POP SWAP3 SWAP2 POP POP JUMP JUMPDEST PUSH1 0x0 PUSH2 0x6B4 DUP3 PUSH2 0x752 JUMP JUMPDEST SWAP2 POP PUSH2 0x6BF DUP4 PUSH2 0x752 JUMP JUMPDEST SWAP3 POP DUP3 PUSH2 0x6CF JUMPI PUSH2 0x6CE PUSH2 0x78B JUMP JUMPDEST JUMPDEST DUP3 DUP3 DIV SWAP1 POP SWAP3 SWAP2 POP POP JUMP JUMPDEST PUSH1 0x0 PUSH2 0x6E5 DUP3 PUSH2 0x752 JUMP JUMPDEST SWAP2 POP PUSH2 0x6F0 DUP4 PUSH2 0x752 JUMP JUMPDEST SWAP3 POP DUP3 DUP3 LT ISZERO PUSH2 0x703 JUMPI PUSH2 0x702 PUSH2 0x75C JUMP JUMPDEST JUMPDEST DUP3 DUP3 SUB SWAP1 POP SWAP3 SWAP2 POP POP JUMP JUMPDEST PUSH1 0x0 PUSH2 0x719 DUP3 PUSH2 0x732 JUMP JUMPDEST SWAP1 POP SWAP2 SWAP1 POP JUMP JUMPDEST PUSH1 0x0 PUSH2 0x72B DUP3 PUSH2 0x732 JUMP JUMPDEST SWAP1 POP SWAP2 SWAP1 POP JUMP JUMPDEST PUSH1 0x0 PUSH20 0xFFFFFFFFFFFFFFFFFFFFFFFFFFFFFFFFFFFFFFFF DUP3 AND SWAP1 POP SWAP2 SWAP1 POP JUMP JUMPDEST PUSH1 0x0 DUP2 SWAP1 POP SWAP2 SWAP1 POP JUMP JUMPDEST PUSH32 0x4E487B7100000000000000000000000000000000000000000000000000000000 PUSH1 0x0 MSTORE PUSH1 0x11 PUSH1 0x4 MSTORE PUSH1 0x24 PUSH1 0x0 REVERT JUMPDEST PUSH32 0x4E487B7100000000000000000000000000000000000000000000000000000000 PUSH1 0x0 MSTORE PUSH1 0x12 PUSH1 0x4 MSTORE PUSH1 0x24 PUSH1 0x0 REVERT JUMPDEST PUSH1 0x0 DUP1 REVERT JUMPDEST PUSH2 0x7C8 DUP2 PUSH2 0x70E JUMP JUMPDEST DUP2 EQ PUSH2 0x7D3 JUMPI PUSH1 0x0 DUP1 REVERT JUMPDEST POP JUMP JUMPDEST PUSH2 0x7DF DUP2 PUSH2 0x752 JUMP JUMPDEST DUP2 EQ PUSH2 0x7EA JUMPI PUSH1 0x0 DUP1 REVERT JUMPDEST POP JUMP INVALID LOG2 PUSH5 0x6970667358 0x22 SLT KECCAK256 0x5F 0xB9 0xBC GASLIMIT GASLIMIT ADDRESS 0xDB NUMBER DUP8 0xD5 0xE0 JUMP 0xFC CODECOPY RETURNDATASIZE SWAP2 PUSH28 0x5A418AEBA7F66C05744D9FCAF6BE7964736F6C634300080700330000 "
				},
				"gasEstimates": {
					"creation": {
						"codeDepositCost": "416600",
						"executionCost": "29735",
						"totalCost": "446335"
					},
					"external": {
						"balances(address)": "2814",
						"buyToken()": "infinite",
						"mint(address,uint256)": "infinite",
						"minter()": "2489",
						"sender(address,uint256)": "infinite",
						"setConversionRate(uint256)": "24776"
					}
				},
				"methodIdentifiers": {
					"balances(address)": "27e235e3",
					"buyToken()": "a4821719",
					"mint(address,uint256)": "40c10f19",
					"minter()": "07546172",
					"sender(address,uint256)": "38daa915",
					"setConversionRate(uint256)": "d2e80494"
				}
			},
			"storageLayout": {
				"storage": [
					{
						"astId": 3,
						"contract": "contracts/Token.sol:MyToken",
						"label": "minter",
						"offset": 0,
						"slot": "0",
						"type": "t_address_payable"
					},
					{
						"astId": 7,
						"contract": "contracts/Token.sol:MyToken",
						"label": "balances",
						"offset": 0,
						"slot": "1",
						"type": "t_mapping(t_address,t_uint256)"
					},
					{
						"astId": 9,
						"contract": "contracts/Token.sol:MyToken",
						"label": "rate",
						"offset": 0,
						"slot": "2",
						"type": "t_uint256"
					}
				],
				"types": {
					"t_address": {
						"encoding": "inplace",
						"label": "address",
						"numberOfBytes": "20"
					},
					"t_address_payable": {
						"encoding": "inplace",
						"label": "address payable",
						"numberOfBytes": "20"
					},
					"t_mapping(t_address,t_uint256)": {
						"encoding": "mapping",
						"key": "t_address",
						"label": "mapping(address => uint256)",
						"numberOfBytes": "32",
						"value": "t_uint256"
					},
					"t_uint256": {
						"encoding": "inplace",
						"label": "uint256",
						"numberOfBytes": "32"
					}
				}
			},
			"userdoc": {
				"kind": "user",
				"methods": {},
				"version": 1
			}
		}
	}
}