{
	"contracts/Token.sol": {
		"MyToken": {
			"abi": [
				{
					"inputs": [],
					"stateMutability": "nonpayable",
					"type": "constructor"
				},
				{
					"anonymous": false,
					"inputs": [
						{
							"indexed": false,
							"internalType": "address",
							"name": "from",
							"type": "address"
						},
						{
							"indexed": false,
							"internalType": "address",
							"name": "to",
							"type": "address"
						},
						{
							"indexed": false,
							"internalType": "uint256",
							"name": "amount",
							"type": "uint256"
						}
					],
					"name": "Sent",
					"type": "event"
				},
				{
					"inputs": [
						{
							"internalType": "address",
							"name": "",
							"type": "address"
						}
					],
					"name": "balances",
					"outputs": [
						{
							"internalType": "uint256",
							"name": "",
							"type": "uint256"
						}
					],
					"stateMutability": "view",
					"type": "function"
				},
				{
					"inputs": [],
					"name": "buyToken",
					"outputs": [],
					"stateMutability": "payable",
					"type": "function"
				},
				{
					"inputs": [
						{
							"internalType": "address",
							"name": "receiver",
							"type": "address"
						},
						{
							"internalType": "uint256",
							"name": "amount",
							"type": "uint256"
						}
					],
					"name": "mint",
					"outputs": [],
					"stateMutability": "nonpayable",
					"type": "function"
				},
				{
					"inputs": [],
					"name": "minter",
					"outputs": [
						{
							"internalType": "address",
							"name": "",
							"type": "address"
						}
					],
					"stateMutability": "view",
					"type": "function"
				},
				{
					"inputs": [
						{
							"internalType": "address",
							"name": "receiver",
							"type": "address"
						},
						{
							"internalType": "uint256",
							"name": "amount",
							"type": "uint256"
						}
					],
					"name": "sender",
					"outputs": [],
					"stateMutability": "nonpayable",
					"type": "function"
				},
				{
					"inputs": [
						{
							"internalType": "uint256",
							"name": "newRate",
							"type": "uint256"
						}
					],
					"name": "setConversionRate",
					"outputs": [],
					"stateMutability": "nonpayable",
					"type": "function"
				}
			],
			"devdoc": {
				"kind": "dev",
				"methods": {},
				"version": 1
			},
			"evm": {
				"assembly": "    /* \"contracts/Token.sol\":73:1130  contract MyToken {\r... */\n  mstore(0x40, 0x80)\n    /* \"contracts/Token.sol\":255:326  constructor() {\r... */\n  callvalue\n  dup1\n  iszero\n  tag_1\n  jumpi\n  0x00\n  dup1\n  revert\ntag_1:\n  pop\n    /* \"contracts/Token.sol\":289:299  msg.sender */\n  caller\n    /* \"contracts/Token.sol\":280:286  minter */\n  0x00\n  dup1\n    /* \"contracts/Token.sol\":280:299  minter = msg.sender */\n  0x0100\n  exp\n  dup2\n  sload\n  dup2\n  0xffffffffffffffffffffffffffffffffffffffff\n  mul\n  not\n  and\n  swap1\n  dup4\n  0xffffffffffffffffffffffffffffffffffffffff\n  and\n  mul\n  or\n  swap1\n  sstore\n  pop\n    /* \"contracts/Token.sol\":317:318  0 */\n  0x00\n    /* \"contracts/Token.sol\":310:314  rate */\n  0x02\n    /* \"contracts/Token.sol\":310:318  rate = 0 */\n  dup2\n  swap1\n  sstore\n  pop\n    /* \"contracts/Token.sol\":73:1130  contract MyToken {\r... */\n  dataSize(sub_0)\n  dup1\n  dataOffset(sub_0)\n  0x00\n  codecopy\n  0x00\n  return\nstop\n\nsub_0: assembly {\n        /* \"contracts/Token.sol\":73:1130  contract MyToken {\r... */\n      mstore(0x40, 0x80)\n      jumpi(tag_1, lt(calldatasize, 0x04))\n      shr(0xe0, calldataload(0x00))\n      dup1\n      0x07546172\n      eq\n      tag_2\n      jumpi\n      dup1\n      0x27e235e3\n      eq\n      tag_3\n      jumpi\n      dup1\n      0x38daa915\n      eq\n      tag_4\n      jumpi\n      dup1\n      0x40c10f19\n      eq\n      tag_5\n      jumpi\n      dup1\n      0xa4821719\n      eq\n      tag_6\n      jumpi\n      dup1\n      0xd2e80494\n      eq\n      tag_7\n      jumpi\n    tag_1:\n      0x00\n      dup1\n      revert\n        /* \"contracts/Token.sol\":97:118  address public minter */\n    tag_2:\n      callvalue\n      dup1\n      iszero\n      tag_8\n      jumpi\n      0x00\n      dup1\n      revert\n    tag_8:\n      pop\n      tag_9\n      tag_10\n      jump\t// in\n    tag_9:\n      mload(0x40)\n      tag_11\n      swap2\n      swap1\n      tag_12\n      jump\t// in\n    tag_11:\n      mload(0x40)\n      dup1\n      swap2\n      sub\n      swap1\n      return\n        /* \"contracts/Token.sol\":125:166  mapping (address => uint) public balances */\n    tag_3:\n      callvalue\n      dup1\n      iszero\n      tag_13\n      jumpi\n      0x00\n      dup1\n      revert\n    tag_13:\n      pop\n      tag_14\n      0x04\n      dup1\n      calldatasize\n      sub\n      dup2\n      add\n      swap1\n      tag_15\n      swap2\n      swap1\n      tag_16\n      jump\t// in\n    tag_15:\n      tag_17\n      jump\t// in\n    tag_14:\n      mload(0x40)\n      tag_18\n      swap2\n      swap1\n      tag_19\n      jump\t// in\n    tag_18:\n      mload(0x40)\n      dup1\n      swap2\n      sub\n      swap1\n      return\n        /* \"contracts/Token.sol\":483:728  function sender(address receiver, uint amount) public {\r... */\n    tag_4:\n      callvalue\n      dup1\n      iszero\n      tag_20\n      jumpi\n      0x00\n      dup1\n      revert\n    tag_20:\n      pop\n      tag_21\n      0x04\n      dup1\n      calldatasize\n      sub\n      dup2\n      add\n      swap1\n      tag_22\n      swap2\n      swap1\n      tag_23\n      jump\t// in\n    tag_22:\n      tag_24\n      jump\t// in\n    tag_21:\n      stop\n        /* \"contracts/Token.sol\":334:475  function mint(address receiver, uint amount) public {\r... */\n    tag_5:\n      callvalue\n      dup1\n      iszero\n      tag_25\n      jumpi\n      0x00\n      dup1\n      revert\n    tag_25:\n      pop\n      tag_26\n      0x04\n      dup1\n      calldatasize\n      sub\n      dup2\n      add\n      swap1\n      tag_27\n      swap2\n      swap1\n      tag_23\n      jump\t// in\n    tag_27:\n      tag_28\n      jump\t// in\n    tag_26:\n      stop\n        /* \"contracts/Token.sol\":867:1127  function buyToken() public payable {\r... */\n    tag_6:\n      tag_29\n      tag_30\n      jump\t// in\n    tag_29:\n      stop\n        /* \"contracts/Token.sol\":736:859  function setConversionRate(uint newRate) public {\r... */\n    tag_7:\n      callvalue\n      dup1\n      iszero\n      tag_31\n      jumpi\n      0x00\n      dup1\n      revert\n    tag_31:\n      pop\n      tag_32\n      0x04\n      dup1\n      calldatasize\n      sub\n      dup2\n      add\n      swap1\n      tag_33\n      swap2\n      swap1\n      tag_34\n      jump\t// in\n    tag_33:\n      tag_35\n      jump\t// in\n    tag_32:\n      stop\n        /* \"contracts/Token.sol\":97:118  address public minter */\n    tag_10:\n      0x00\n      dup1\n      sload\n      swap1\n      0x0100\n      exp\n      swap1\n      div\n      0xffffffffffffffffffffffffffffffffffffffff\n      and\n      dup2\n      jump\t// out\n        /* \"contracts/Token.sol\":125:166  mapping (address => uint) public balances */\n    tag_17:\n      mstore(0x20, 0x01)\n      dup1\n      0x00\n      mstore\n      keccak256(0x00, 0x40)\n      0x00\n      swap2\n      pop\n      swap1\n      pop\n      sload\n      dup2\n      jump\t// out\n        /* \"contracts/Token.sol\":483:728  function sender(address receiver, uint amount) public {\r... */\n    tag_24:\n        /* \"contracts/Token.sol\":574:580  amount */\n      dup1\n        /* \"contracts/Token.sol\":551:559  balances */\n      0x01\n        /* \"contracts/Token.sol\":551:571  balances[msg.sender] */\n      0x00\n        /* \"contracts/Token.sol\":560:570  msg.sender */\n      caller\n        /* \"contracts/Token.sol\":551:571  balances[msg.sender] */\n      0xffffffffffffffffffffffffffffffffffffffff\n      and\n      0xffffffffffffffffffffffffffffffffffffffff\n      and\n      dup2\n      mstore\n      0x20\n      add\n      swap1\n      dup2\n      mstore\n      0x20\n      add\n      0x00\n      keccak256\n      sload\n        /* \"contracts/Token.sol\":551:580  balances[msg.sender] < amount */\n      lt\n        /* \"contracts/Token.sol\":548:589  if(balances[msg.sender] < amount) return; */\n      iszero\n      tag_37\n      jumpi\n        /* \"contracts/Token.sol\":582:589  return; */\n      jump(tag_36)\n        /* \"contracts/Token.sol\":548:589  if(balances[msg.sender] < amount) return; */\n    tag_37:\n        /* \"contracts/Token.sol\":623:629  amount */\n      dup1\n        /* \"contracts/Token.sol\":599:607  balances */\n      0x01\n        /* \"contracts/Token.sol\":599:619  balances[msg.sender] */\n      0x00\n        /* \"contracts/Token.sol\":608:618  msg.sender */\n      caller\n        /* \"contracts/Token.sol\":599:619  balances[msg.sender] */\n      0xffffffffffffffffffffffffffffffffffffffff\n      and\n      0xffffffffffffffffffffffffffffffffffffffff\n      and\n      dup2\n      mstore\n      0x20\n      add\n      swap1\n      dup2\n      mstore\n      0x20\n      add\n      0x00\n      keccak256\n      0x00\n        /* \"contracts/Token.sol\":599:629  balances[msg.sender] -= amount */\n      dup3\n      dup3\n      sload\n      tag_38\n      swap2\n      swap1\n      tag_39\n      jump\t// in\n    tag_38:\n      swap3\n      pop\n      pop\n      dup2\n      swap1\n      sstore\n      pop\n        /* \"contracts/Token.sol\":662:668  amount */\n      dup1\n        /* \"contracts/Token.sol\":640:648  balances */\n      0x01\n        /* \"contracts/Token.sol\":640:658  balances[receiver] */\n      0x00\n        /* \"contracts/Token.sol\":649:657  receiver */\n      dup5\n        /* \"contracts/Token.sol\":640:658  balances[receiver] */\n      0xffffffffffffffffffffffffffffffffffffffff\n      and\n      0xffffffffffffffffffffffffffffffffffffffff\n      and\n      dup2\n      mstore\n      0x20\n      add\n      swap1\n      dup2\n      mstore\n      0x20\n      add\n      0x00\n      keccak256\n      0x00\n        /* \"contracts/Token.sol\":640:668  balances[receiver] += amount */\n      dup3\n      dup3\n      sload\n      tag_40\n      swap2\n      swap1\n      tag_41\n      jump\t// in\n    tag_40:\n      swap3\n      pop\n      pop\n      dup2\n      swap1\n      sstore\n      pop\n        /* \"contracts/Token.sol\":686:720  Sent(msg.sender, receiver, amount) */\n      0x3990db2d31862302a685e8086b5755072a6e2b5b780af1ee81ece35ee3cd3345\n        /* \"contracts/Token.sol\":691:701  msg.sender */\n      caller\n        /* \"contracts/Token.sol\":703:711  receiver */\n      dup4\n        /* \"contracts/Token.sol\":713:719  amount */\n      dup4\n        /* \"contracts/Token.sol\":686:720  Sent(msg.sender, receiver, amount) */\n      mload(0x40)\n      tag_42\n      swap4\n      swap3\n      swap2\n      swap1\n      tag_43\n      jump\t// in\n    tag_42:\n      mload(0x40)\n      dup1\n      swap2\n      sub\n      swap1\n      log1\n        /* \"contracts/Token.sol\":483:728  function sender(address receiver, uint amount) public {\r... */\n    tag_36:\n      pop\n      pop\n      jump\t// out\n        /* \"contracts/Token.sol\":334:475  function mint(address receiver, uint amount) public {\r... */\n    tag_28:\n        /* \"contracts/Token.sol\":414:420  minter */\n      0x00\n      dup1\n      sload\n      swap1\n      0x0100\n      exp\n      swap1\n      div\n      0xffffffffffffffffffffffffffffffffffffffff\n      and\n        /* \"contracts/Token.sol\":400:420  msg.sender != minter */\n      0xffffffffffffffffffffffffffffffffffffffff\n      and\n        /* \"contracts/Token.sol\":400:410  msg.sender */\n      caller\n        /* \"contracts/Token.sol\":400:420  msg.sender != minter */\n      0xffffffffffffffffffffffffffffffffffffffff\n      and\n      eq\n        /* \"contracts/Token.sol\":397:429  if(msg.sender != minter) return; */\n      tag_45\n      jumpi\n        /* \"contracts/Token.sol\":422:429  return; */\n      jump(tag_44)\n        /* \"contracts/Token.sol\":397:429  if(msg.sender != minter) return; */\n    tag_45:\n        /* \"contracts/Token.sol\":461:467  amount */\n      dup1\n        /* \"contracts/Token.sol\":439:447  balances */\n      0x01\n        /* \"contracts/Token.sol\":439:457  balances[receiver] */\n      0x00\n        /* \"contracts/Token.sol\":448:456  receiver */\n      dup5\n        /* \"contracts/Token.sol\":439:457  balances[receiver] */\n      0xffffffffffffffffffffffffffffffffffffffff\n      and\n      0xffffffffffffffffffffffffffffffffffffffff\n      and\n      dup2\n      mstore\n      0x20\n      add\n      swap1\n      dup2\n      mstore\n      0x20\n      add\n      0x00\n      keccak256\n      0x00\n        /* \"contracts/Token.sol\":439:467  balances[receiver] += amount */\n      dup3\n      dup3\n      sload\n      tag_46\n      swap2\n      swap1\n      tag_41\n      jump\t// in\n    tag_46:\n      swap3\n      pop\n      pop\n      dup2\n      swap1\n      sstore\n      pop\n        /* \"contracts/Token.sol\":334:475  function mint(address receiver, uint amount) public {\r... */\n    tag_44:\n      pop\n      pop\n      jump\t// out\n        /* \"contracts/Token.sol\":867:1127  function buyToken() public payable {\r... */\n    tag_30:\n        /* \"contracts/Token.sol\":924:925  0 */\n      0x00\n        /* \"contracts/Token.sol\":916:920  rate */\n      sload(0x02)\n        /* \"contracts/Token.sol\":916:925  rate == 0 */\n      eq\n        /* \"contracts/Token.sol\":913:1120  if(rate == 0) {\r... */\n      iszero\n      tag_48\n      jumpi\n        /* \"contracts/Token.sol\":950:960  msg.sender */\n      caller\n        /* \"contracts/Token.sol\":942:970  payable(msg.sender).transfer */\n      0xffffffffffffffffffffffffffffffffffffffff\n      and\n        /* \"contracts/Token.sol\":942:981  payable(msg.sender).transfer(msg.value) */\n      0x08fc\n        /* \"contracts/Token.sol\":971:980  msg.value */\n      callvalue\n        /* \"contracts/Token.sol\":942:981  payable(msg.sender).transfer(msg.value) */\n      swap1\n      dup2\n      iszero\n      mul\n      swap1\n      mload(0x40)\n      0x00\n      mload(0x40)\n      dup1\n      dup4\n      sub\n      dup2\n      dup6\n      dup9\n      dup9\n      call\n      swap4\n      pop\n      pop\n      pop\n      pop\n      iszero\n      dup1\n      iszero\n      tag_50\n      jumpi\n      returndatasize\n      0x00\n      dup1\n      returndatacopy\n      revert(0x00, returndatasize)\n    tag_50:\n      pop\n        /* \"contracts/Token.sol\":913:1120  if(rate == 0) {\r... */\n      jump(tag_51)\n    tag_48:\n        /* \"contracts/Token.sol\":1022:1032  msg.sender */\n      caller\n        /* \"contracts/Token.sol\":1014:1042  payable(msg.sender).transfer */\n      0xffffffffffffffffffffffffffffffffffffffff\n      and\n        /* \"contracts/Token.sol\":1014:1053  payable(msg.sender).transfer(msg.value) */\n      0x08fc\n        /* \"contracts/Token.sol\":1043:1052  msg.value */\n      callvalue\n        /* \"contracts/Token.sol\":1014:1053  payable(msg.sender).transfer(msg.value) */\n      swap1\n      dup2\n      iszero\n      mul\n      swap1\n      mload(0x40)\n      0x00\n      mload(0x40)\n      dup1\n      dup4\n      sub\n      dup2\n      dup6\n      dup9\n      dup9\n      call\n      swap4\n      pop\n      pop\n      pop\n      pop\n      iszero\n      dup1\n      iszero\n      tag_53\n      jumpi\n      returndatasize\n      0x00\n      dup1\n      returndatacopy\n      revert(0x00, returndatasize)\n    tag_53:\n      pop\n        /* \"contracts/Token.sol\":1104:1108  rate */\n      sload(0x02)\n        /* \"contracts/Token.sol\":1092:1101  msg.value */\n      callvalue\n        /* \"contracts/Token.sol\":1092:1108  msg.value / rate */\n      tag_54\n      swap2\n      swap1\n      tag_55\n      jump\t// in\n    tag_54:\n        /* \"contracts/Token.sol\":1068:1076  balances */\n      0x01\n        /* \"contracts/Token.sol\":1068:1088  balances[msg.sender] */\n      0x00\n        /* \"contracts/Token.sol\":1077:1087  msg.sender */\n      caller\n        /* \"contracts/Token.sol\":1068:1088  balances[msg.sender] */\n      0xffffffffffffffffffffffffffffffffffffffff\n      and\n      0xffffffffffffffffffffffffffffffffffffffff\n      and\n      dup2\n      mstore\n      0x20\n      add\n      swap1\n      dup2\n      mstore\n      0x20\n      add\n      0x00\n      keccak256\n      0x00\n        /* \"contracts/Token.sol\":1068:1108  balances[msg.sender] += msg.value / rate */\n      dup3\n      dup3\n      sload\n      tag_56\n      swap2\n      swap1\n      tag_41\n      jump\t// in\n    tag_56:\n      swap3\n      pop\n      pop\n      dup2\n      swap1\n      sstore\n      pop\n        /* \"contracts/Token.sol\":913:1120  if(rate == 0) {\r... */\n    tag_51:\n        /* \"contracts/Token.sol\":867:1127  function buyToken() public payable {\r... */\n      jump\t// out\n        /* \"contracts/Token.sol\":736:859  function setConversionRate(uint newRate) public {\r... */\n    tag_35:\n        /* \"contracts/Token.sol\":812:818  minter */\n      0x00\n      dup1\n      sload\n      swap1\n      0x0100\n      exp\n      swap1\n      div\n      0xffffffffffffffffffffffffffffffffffffffff\n      and\n        /* \"contracts/Token.sol\":798:818  msg.sender != minter */\n      0xffffffffffffffffffffffffffffffffffffffff\n      and\n        /* \"contracts/Token.sol\":798:808  msg.sender */\n      caller\n        /* \"contracts/Token.sol\":798:818  msg.sender != minter */\n      0xffffffffffffffffffffffffffffffffffffffff\n      and\n      eq\n        /* \"contracts/Token.sol\":795:827  if(msg.sender != minter) return; */\n      tag_58\n      jumpi\n        /* \"contracts/Token.sol\":820:827  return; */\n      jump(tag_57)\n        /* \"contracts/Token.sol\":795:827  if(msg.sender != minter) return; */\n    tag_58:\n        /* \"contracts/Token.sol\":844:851  newRate */\n      dup1\n        /* \"contracts/Token.sol\":837:841  rate */\n      0x02\n        /* \"contracts/Token.sol\":837:851  rate = newRate */\n      dup2\n      swap1\n      sstore\n      pop\n        /* \"contracts/Token.sol\":736:859  function setConversionRate(uint newRate) public {\r... */\n    tag_57:\n      pop\n      jump\t// out\n        /* \"#utility.yul\":7:146   */\n    tag_60:\n        /* \"#utility.yul\":53:58   */\n      0x00\n        /* \"#utility.yul\":91:97   */\n      dup2\n        /* \"#utility.yul\":78:98   */\n      calldataload\n        /* \"#utility.yul\":69:98   */\n      swap1\n      pop\n        /* \"#utility.yul\":107:140   */\n      tag_62\n        /* \"#utility.yul\":134:139   */\n      dup2\n        /* \"#utility.yul\":107:140   */\n      tag_63\n      jump\t// in\n    tag_62:\n        /* \"#utility.yul\":7:146   */\n      swap3\n      swap2\n      pop\n      pop\n      jump\t// out\n        /* \"#utility.yul\":152:291   */\n    tag_64:\n        /* \"#utility.yul\":198:203   */\n      0x00\n        /* \"#utility.yul\":236:242   */\n      dup2\n        /* \"#utility.yul\":223:243   */\n      calldataload\n        /* \"#utility.yul\":214:243   */\n      swap1\n      pop\n        /* \"#utility.yul\":252:285   */\n      tag_66\n        /* \"#utility.yul\":279:284   */\n      dup2\n        /* \"#utility.yul\":252:285   */\n      tag_67\n      jump\t// in\n    tag_66:\n        /* \"#utility.yul\":152:291   */\n      swap3\n      swap2\n      pop\n      pop\n      jump\t// out\n        /* \"#utility.yul\":297:626   */\n    tag_16:\n        /* \"#utility.yul\":356:362   */\n      0x00\n        /* \"#utility.yul\":405:407   */\n      0x20\n        /* \"#utility.yul\":393:402   */\n      dup3\n        /* \"#utility.yul\":384:391   */\n      dup5\n        /* \"#utility.yul\":380:403   */\n      sub\n        /* \"#utility.yul\":376:408   */\n      slt\n        /* \"#utility.yul\":373:492   */\n      iszero\n      tag_69\n      jumpi\n        /* \"#utility.yul\":411:490   */\n      tag_70\n      tag_71\n      jump\t// in\n    tag_70:\n        /* \"#utility.yul\":373:492   */\n    tag_69:\n        /* \"#utility.yul\":531:532   */\n      0x00\n        /* \"#utility.yul\":556:609   */\n      tag_72\n        /* \"#utility.yul\":601:608   */\n      dup5\n        /* \"#utility.yul\":592:598   */\n      dup3\n        /* \"#utility.yul\":581:590   */\n      dup6\n        /* \"#utility.yul\":577:599   */\n      add\n        /* \"#utility.yul\":556:609   */\n      tag_60\n      jump\t// in\n    tag_72:\n        /* \"#utility.yul\":546:609   */\n      swap2\n      pop\n        /* \"#utility.yul\":502:619   */\n      pop\n        /* \"#utility.yul\":297:626   */\n      swap3\n      swap2\n      pop\n      pop\n      jump\t// out\n        /* \"#utility.yul\":632:1106   */\n    tag_23:\n        /* \"#utility.yul\":700:706   */\n      0x00\n        /* \"#utility.yul\":708:714   */\n      dup1\n        /* \"#utility.yul\":757:759   */\n      0x40\n        /* \"#utility.yul\":745:754   */\n      dup4\n        /* \"#utility.yul\":736:743   */\n      dup6\n        /* \"#utility.yul\":732:755   */\n      sub\n        /* \"#utility.yul\":728:760   */\n      slt\n        /* \"#utility.yul\":725:844   */\n      iszero\n      tag_74\n      jumpi\n        /* \"#utility.yul\":763:842   */\n      tag_75\n      tag_71\n      jump\t// in\n    tag_75:\n        /* \"#utility.yul\":725:844   */\n    tag_74:\n        /* \"#utility.yul\":883:884   */\n      0x00\n        /* \"#utility.yul\":908:961   */\n      tag_76\n        /* \"#utility.yul\":953:960   */\n      dup6\n        /* \"#utility.yul\":944:950   */\n      dup3\n        /* \"#utility.yul\":933:942   */\n      dup7\n        /* \"#utility.yul\":929:951   */\n      add\n        /* \"#utility.yul\":908:961   */\n      tag_60\n      jump\t// in\n    tag_76:\n        /* \"#utility.yul\":898:961   */\n      swap3\n      pop\n        /* \"#utility.yul\":854:971   */\n      pop\n        /* \"#utility.yul\":1010:1012   */\n      0x20\n        /* \"#utility.yul\":1036:1089   */\n      tag_77\n        /* \"#utility.yul\":1081:1088   */\n      dup6\n        /* \"#utility.yul\":1072:1078   */\n      dup3\n        /* \"#utility.yul\":1061:1070   */\n      dup7\n        /* \"#utility.yul\":1057:1079   */\n      add\n        /* \"#utility.yul\":1036:1089   */\n      tag_64\n      jump\t// in\n    tag_77:\n        /* \"#utility.yul\":1026:1089   */\n      swap2\n      pop\n        /* \"#utility.yul\":981:1099   */\n      pop\n        /* \"#utility.yul\":632:1106   */\n      swap3\n      pop\n      swap3\n      swap1\n      pop\n      jump\t// out\n        /* \"#utility.yul\":1112:1441   */\n    tag_34:\n        /* \"#utility.yul\":1171:1177   */\n      0x00\n        /* \"#utility.yul\":1220:1222   */\n      0x20\n        /* \"#utility.yul\":1208:1217   */\n      dup3\n        /* \"#utility.yul\":1199:1206   */\n      dup5\n        /* \"#utility.yul\":1195:1218   */\n      sub\n        /* \"#utility.yul\":1191:1223   */\n      slt\n        /* \"#utility.yul\":1188:1307   */\n      iszero\n      tag_79\n      jumpi\n        /* \"#utility.yul\":1226:1305   */\n      tag_80\n      tag_71\n      jump\t// in\n    tag_80:\n        /* \"#utility.yul\":1188:1307   */\n    tag_79:\n        /* \"#utility.yul\":1346:1347   */\n      0x00\n        /* \"#utility.yul\":1371:1424   */\n      tag_81\n        /* \"#utility.yul\":1416:1423   */\n      dup5\n        /* \"#utility.yul\":1407:1413   */\n      dup3\n        /* \"#utility.yul\":1396:1405   */\n      dup6\n        /* \"#utility.yul\":1392:1414   */\n      add\n        /* \"#utility.yul\":1371:1424   */\n      tag_64\n      jump\t// in\n    tag_81:\n        /* \"#utility.yul\":1361:1424   */\n      swap2\n      pop\n        /* \"#utility.yul\":1317:1434   */\n      pop\n        /* \"#utility.yul\":1112:1441   */\n      swap3\n      swap2\n      pop\n      pop\n      jump\t// out\n        /* \"#utility.yul\":1447:1565   */\n    tag_82:\n        /* \"#utility.yul\":1534:1558   */\n      tag_84\n        /* \"#utility.yul\":1552:1557   */\n      dup2\n        /* \"#utility.yul\":1534:1558   */\n      tag_85\n      jump\t// in\n    tag_84:\n        /* \"#utility.yul\":1529:1532   */\n      dup3\n        /* \"#utility.yul\":1522:1559   */\n      mstore\n        /* \"#utility.yul\":1447:1565   */\n      pop\n      pop\n      jump\t// out\n        /* \"#utility.yul\":1571:1689   */\n    tag_86:\n        /* \"#utility.yul\":1658:1682   */\n      tag_88\n        /* \"#utility.yul\":1676:1681   */\n      dup2\n        /* \"#utility.yul\":1658:1682   */\n      tag_89\n      jump\t// in\n    tag_88:\n        /* \"#utility.yul\":1653:1656   */\n      dup3\n        /* \"#utility.yul\":1646:1683   */\n      mstore\n        /* \"#utility.yul\":1571:1689   */\n      pop\n      pop\n      jump\t// out\n        /* \"#utility.yul\":1695:1917   */\n    tag_12:\n        /* \"#utility.yul\":1788:1792   */\n      0x00\n        /* \"#utility.yul\":1826:1828   */\n      0x20\n        /* \"#utility.yul\":1815:1824   */\n      dup3\n        /* \"#utility.yul\":1811:1829   */\n      add\n        /* \"#utility.yul\":1803:1829   */\n      swap1\n      pop\n        /* \"#utility.yul\":1839:1910   */\n      tag_91\n        /* \"#utility.yul\":1907:1908   */\n      0x00\n        /* \"#utility.yul\":1896:1905   */\n      dup4\n        /* \"#utility.yul\":1892:1909   */\n      add\n        /* \"#utility.yul\":1883:1889   */\n      dup5\n        /* \"#utility.yul\":1839:1910   */\n      tag_82\n      jump\t// in\n    tag_91:\n        /* \"#utility.yul\":1695:1917   */\n      swap3\n      swap2\n      pop\n      pop\n      jump\t// out\n        /* \"#utility.yul\":1923:2365   */\n    tag_43:\n        /* \"#utility.yul\":2072:2076   */\n      0x00\n        /* \"#utility.yul\":2110:2112   */\n      0x60\n        /* \"#utility.yul\":2099:2108   */\n      dup3\n        /* \"#utility.yul\":2095:2113   */\n      add\n        /* \"#utility.yul\":2087:2113   */\n      swap1\n      pop\n        /* \"#utility.yul\":2123:2194   */\n      tag_93\n        /* \"#utility.yul\":2191:2192   */\n      0x00\n        /* \"#utility.yul\":2180:2189   */\n      dup4\n        /* \"#utility.yul\":2176:2193   */\n      add\n        /* \"#utility.yul\":2167:2173   */\n      dup7\n        /* \"#utility.yul\":2123:2194   */\n      tag_82\n      jump\t// in\n    tag_93:\n        /* \"#utility.yul\":2204:2276   */\n      tag_94\n        /* \"#utility.yul\":2272:2274   */\n      0x20\n        /* \"#utility.yul\":2261:2270   */\n      dup4\n        /* \"#utility.yul\":2257:2275   */\n      add\n        /* \"#utility.yul\":2248:2254   */\n      dup6\n        /* \"#utility.yul\":2204:2276   */\n      tag_82\n      jump\t// in\n    tag_94:\n        /* \"#utility.yul\":2286:2358   */\n      tag_95\n        /* \"#utility.yul\":2354:2356   */\n      0x40\n        /* \"#utility.yul\":2343:2352   */\n      dup4\n        /* \"#utility.yul\":2339:2357   */\n      add\n        /* \"#utility.yul\":2330:2336   */\n      dup5\n        /* \"#utility.yul\":2286:2358   */\n      tag_86\n      jump\t// in\n    tag_95:\n        /* \"#utility.yul\":1923:2365   */\n      swap5\n      swap4\n      pop\n      pop\n      pop\n      pop\n      jump\t// out\n        /* \"#utility.yul\":2371:2593   */\n    tag_19:\n        /* \"#utility.yul\":2464:2468   */\n      0x00\n        /* \"#utility.yul\":2502:2504   */\n      0x20\n        /* \"#utility.yul\":2491:2500   */\n      dup3\n        /* \"#utility.yul\":2487:2505   */\n      add\n        /* \"#utility.yul\":2479:2505   */\n      swap1\n      pop\n        /* \"#utility.yul\":2515:2586   */\n      tag_97\n        /* \"#utility.yul\":2583:2584   */\n      0x00\n        /* \"#utility.yul\":2572:2581   */\n      dup4\n        /* \"#utility.yul\":2568:2585   */\n      add\n        /* \"#utility.yul\":2559:2565   */\n      dup5\n        /* \"#utility.yul\":2515:2586   */\n      tag_86\n      jump\t// in\n    tag_97:\n        /* \"#utility.yul\":2371:2593   */\n      swap3\n      swap2\n      pop\n      pop\n      jump\t// out\n        /* \"#utility.yul\":2680:2985   */\n    tag_41:\n        /* \"#utility.yul\":2720:2723   */\n      0x00\n        /* \"#utility.yul\":2739:2759   */\n      tag_101\n        /* \"#utility.yul\":2757:2758   */\n      dup3\n        /* \"#utility.yul\":2739:2759   */\n      tag_89\n      jump\t// in\n    tag_101:\n        /* \"#utility.yul\":2734:2759   */\n      swap2\n      pop\n        /* \"#utility.yul\":2773:2793   */\n      tag_102\n        /* \"#utility.yul\":2791:2792   */\n      dup4\n        /* \"#utility.yul\":2773:2793   */\n      tag_89\n      jump\t// in\n    tag_102:\n        /* \"#utility.yul\":2768:2793   */\n      swap3\n      pop\n        /* \"#utility.yul\":2927:2928   */\n      dup3\n        /* \"#utility.yul\":2859:2925   */\n      0xffffffffffffffffffffffffffffffffffffffffffffffffffffffffffffffff\n        /* \"#utility.yul\":2855:2929   */\n      sub\n        /* \"#utility.yul\":2852:2853   */\n      dup3\n        /* \"#utility.yul\":2849:2930   */\n      gt\n        /* \"#utility.yul\":2846:2953   */\n      iszero\n      tag_103\n      jumpi\n        /* \"#utility.yul\":2933:2951   */\n      tag_104\n      tag_105\n      jump\t// in\n    tag_104:\n        /* \"#utility.yul\":2846:2953   */\n    tag_103:\n        /* \"#utility.yul\":2977:2978   */\n      dup3\n        /* \"#utility.yul\":2974:2975   */\n      dup3\n        /* \"#utility.yul\":2970:2979   */\n      add\n        /* \"#utility.yul\":2963:2979   */\n      swap1\n      pop\n        /* \"#utility.yul\":2680:2985   */\n      swap3\n      swap2\n      pop\n      pop\n      jump\t// out\n        /* \"#utility.yul\":2991:3176   */\n    tag_55:\n        /* \"#utility.yul\":3031:3032   */\n      0x00\n        /* \"#utility.yul\":3048:3068   */\n      tag_107\n        /* \"#utility.yul\":3066:3067   */\n      dup3\n        /* \"#utility.yul\":3048:3068   */\n      tag_89\n      jump\t// in\n    tag_107:\n        /* \"#utility.yul\":3043:3068   */\n      swap2\n      pop\n        /* \"#utility.yul\":3082:3102   */\n      tag_108\n        /* \"#utility.yul\":3100:3101   */\n      dup4\n        /* \"#utility.yul\":3082:3102   */\n      tag_89\n      jump\t// in\n    tag_108:\n        /* \"#utility.yul\":3077:3102   */\n      swap3\n      pop\n        /* \"#utility.yul\":3121:3122   */\n      dup3\n        /* \"#utility.yul\":3111:3146   */\n      tag_109\n      jumpi\n        /* \"#utility.yul\":3126:3144   */\n      tag_110\n      tag_111\n      jump\t// in\n    tag_110:\n        /* \"#utility.yul\":3111:3146   */\n    tag_109:\n        /* \"#utility.yul\":3168:3169   */\n      dup3\n        /* \"#utility.yul\":3165:3166   */\n      dup3\n        /* \"#utility.yul\":3161:3170   */\n      div\n        /* \"#utility.yul\":3156:3170   */\n      swap1\n      pop\n        /* \"#utility.yul\":2991:3176   */\n      swap3\n      swap2\n      pop\n      pop\n      jump\t// out\n        /* \"#utility.yul\":3182:3373   */\n    tag_39:\n        /* \"#utility.yul\":3222:3226   */\n      0x00\n        /* \"#utility.yul\":3242:3262   */\n      tag_113\n        /* \"#utility.yul\":3260:3261   */\n      dup3\n        /* \"#utility.yul\":3242:3262   */\n      tag_89\n      jump\t// in\n    tag_113:\n        /* \"#utility.yul\":3237:3262   */\n      swap2\n      pop\n        /* \"#utility.yul\":3276:3296   */\n      tag_114\n        /* \"#utility.yul\":3294:3295   */\n      dup4\n        /* \"#utility.yul\":3276:3296   */\n      tag_89\n      jump\t// in\n    tag_114:\n        /* \"#utility.yul\":3271:3296   */\n      swap3\n      pop\n        /* \"#utility.yul\":3315:3316   */\n      dup3\n        /* \"#utility.yul\":3312:3313   */\n      dup3\n        /* \"#utility.yul\":3309:3317   */\n      lt\n        /* \"#utility.yul\":3306:3340   */\n      iszero\n      tag_115\n      jumpi\n        /* \"#utility.yul\":3320:3338   */\n      tag_116\n      tag_105\n      jump\t// in\n    tag_116:\n        /* \"#utility.yul\":3306:3340   */\n    tag_115:\n        /* \"#utility.yul\":3365:3366   */\n      dup3\n        /* \"#utility.yul\":3362:3363   */\n      dup3\n        /* \"#utility.yul\":3358:3367   */\n      sub\n        /* \"#utility.yul\":3350:3367   */\n      swap1\n      pop\n        /* \"#utility.yul\":3182:3373   */\n      swap3\n      swap2\n      pop\n      pop\n      jump\t// out\n        /* \"#utility.yul\":3379:3475   */\n    tag_85:\n        /* \"#utility.yul\":3416:3423   */\n      0x00\n        /* \"#utility.yul\":3445:3469   */\n      tag_118\n        /* \"#utility.yul\":3463:3468   */\n      dup3\n        /* \"#utility.yul\":3445:3469   */\n      tag_119\n      jump\t// in\n    tag_118:\n        /* \"#utility.yul\":3434:3469   */\n      swap1\n      pop\n        /* \"#utility.yul\":3379:3475   */\n      swap2\n      swap1\n      pop\n      jump\t// out\n        /* \"#utility.yul\":3481:3607   */\n    tag_119:\n        /* \"#utility.yul\":3518:3525   */\n      0x00\n        /* \"#utility.yul\":3558:3600   */\n      0xffffffffffffffffffffffffffffffffffffffff\n        /* \"#utility.yul\":3551:3556   */\n      dup3\n        /* \"#utility.yul\":3547:3601   */\n      and\n        /* \"#utility.yul\":3536:3601   */\n      swap1\n      pop\n        /* \"#utility.yul\":3481:3607   */\n      swap2\n      swap1\n      pop\n      jump\t// out\n        /* \"#utility.yul\":3613:3690   */\n    tag_89:\n        /* \"#utility.yul\":3650:3657   */\n      0x00\n        /* \"#utility.yul\":3679:3684   */\n      dup2\n        /* \"#utility.yul\":3668:3684   */\n      swap1\n      pop\n        /* \"#utility.yul\":3613:3690   */\n      swap2\n      swap1\n      pop\n      jump\t// out\n        /* \"#utility.yul\":3696:3876   */\n    tag_105:\n        /* \"#utility.yul\":3744:3821   */\n      0x4e487b7100000000000000000000000000000000000000000000000000000000\n        /* \"#utility.yul\":3741:3742   */\n      0x00\n        /* \"#utility.yul\":3734:3822   */\n      mstore\n        /* \"#utility.yul\":3841:3845   */\n      0x11\n        /* \"#utility.yul\":3838:3839   */\n      0x04\n        /* \"#utility.yul\":3831:3846   */\n      mstore\n        /* \"#utility.yul\":3865:3869   */\n      0x24\n        /* \"#utility.yul\":3862:3863   */\n      0x00\n        /* \"#utility.yul\":3855:3870   */\n      revert\n        /* \"#utility.yul\":3882:4062   */\n    tag_111:\n        /* \"#utility.yul\":3930:4007   */\n      0x4e487b7100000000000000000000000000000000000000000000000000000000\n        /* \"#utility.yul\":3927:3928   */\n      0x00\n        /* \"#utility.yul\":3920:4008   */\n      mstore\n        /* \"#utility.yul\":4027:4031   */\n      0x12\n        /* \"#utility.yul\":4024:4025   */\n      0x04\n        /* \"#utility.yul\":4017:4032   */\n      mstore\n        /* \"#utility.yul\":4051:4055   */\n      0x24\n        /* \"#utility.yul\":4048:4049   */\n      0x00\n        /* \"#utility.yul\":4041:4056   */\n      revert\n        /* \"#utility.yul\":4191:4308   */\n    tag_71:\n        /* \"#utility.yul\":4300:4301   */\n      0x00\n        /* \"#utility.yul\":4297:4298   */\n      dup1\n        /* \"#utility.yul\":4290:4302   */\n      revert\n        /* \"#utility.yul\":4314:4436   */\n    tag_63:\n        /* \"#utility.yul\":4387:4411   */\n      tag_128\n        /* \"#utility.yul\":4405:4410   */\n      dup2\n        /* \"#utility.yul\":4387:4411   */\n      tag_85\n      jump\t// in\n    tag_128:\n        /* \"#utility.yul\":4380:4385   */\n      dup2\n        /* \"#utility.yul\":4377:4412   */\n      eq\n        /* \"#utility.yul\":4367:4430   */\n      tag_129\n      jumpi\n        /* \"#utility.yul\":4426:4427   */\n      0x00\n        /* \"#utility.yul\":4423:4424   */\n      dup1\n        /* \"#utility.yul\":4416:4428   */\n      revert\n        /* \"#utility.yul\":4367:4430   */\n    tag_129:\n        /* \"#utility.yul\":4314:4436   */\n      pop\n      jump\t// out\n        /* \"#utility.yul\":4442:4564   */\n    tag_67:\n        /* \"#utility.yul\":4515:4539   */\n      tag_131\n        /* \"#utility.yul\":4533:4538   */\n      dup2\n        /* \"#utility.yul\":4515:4539   */\n      tag_89\n      jump\t// in\n    tag_131:\n        /* \"#utility.yul\":4508:4513   */\n      dup2\n        /* \"#utility.yul\":4505:4540   */\n      eq\n        /* \"#utility.yul\":4495:4558   */\n      tag_132\n      jumpi\n        /* \"#utility.yul\":4554:4555   */\n      0x00\n        /* \"#utility.yul\":4551:4552   */\n      dup1\n        /* \"#utility.yul\":4544:4556   */\n      revert\n        /* \"#utility.yul\":4495:4558   */\n    tag_132:\n        /* \"#utility.yul\":4442:4564   */\n      pop\n      jump\t// out\n\n    auxdata: 0xa26469706673582212209a74a0eb2f6f7ce7e89b24f3a8db8b0198b8a63bf6ca9bb3498c4189b94979d864736f6c63430008070033\n}\n",
				"bytecode": {
					"linkReferences": {},
					"object": "608060405234801561001057600080fd5b50336000806101000a81548173ffffffffffffffffffffffffffffffffffffffff021916908373ffffffffffffffffffffffffffffffffffffffff16021790555060006002819055506107e2806100686000396000f3fe6080604052600436106100555760003560e01c8063075461721461005a57806327e235e31461008557806338daa915146100c257806340c10f19146100eb578063a482171914610114578063d2e804941461011e575b600080fd5b34801561006657600080fd5b5061006f610147565b60405161007c91906105b7565b60405180910390f35b34801561009157600080fd5b506100ac60048036038101906100a791906104ff565b61016b565b6040516100b99190610609565b60405180910390f35b3480156100ce57600080fd5b506100e960048036038101906100e4919061052c565b610183565b005b3480156100f757600080fd5b50610112600480360381019061010d919061052c565b6102bb565b005b61011c61036e565b005b34801561012a57600080fd5b506101456004803603810190610140919061056c565b610472565b005b60008054906101000a900473ffffffffffffffffffffffffffffffffffffffff1681565b60016020528060005260406000206000915090505481565b80600160003373ffffffffffffffffffffffffffffffffffffffff1673ffffffffffffffffffffffffffffffffffffffff1681526020019081526020016000205410156101cf576102b7565b80600160003373ffffffffffffffffffffffffffffffffffffffff1673ffffffffffffffffffffffffffffffffffffffff168152602001908152602001600020600082825461021e91906106ab565b9250508190555080600160008473ffffffffffffffffffffffffffffffffffffffff1673ffffffffffffffffffffffffffffffffffffffff16815260200190815260200160002060008282546102749190610624565b925050819055507f3990db2d31862302a685e8086b5755072a6e2b5b780af1ee81ece35ee3cd33453383836040516102ae939291906105d2565b60405180910390a15b5050565b60008054906101000a900473ffffffffffffffffffffffffffffffffffffffff1673ffffffffffffffffffffffffffffffffffffffff163373ffffffffffffffffffffffffffffffffffffffff16146103135761036a565b80600160008473ffffffffffffffffffffffffffffffffffffffff1673ffffffffffffffffffffffffffffffffffffffff16815260200190815260200160002060008282546103629190610624565b925050819055505b5050565b600060025414156103c5573373ffffffffffffffffffffffffffffffffffffffff166108fc349081150290604051600060405180830381858888f193505050501580156103bf573d6000803e3d6000fd5b50610470565b3373ffffffffffffffffffffffffffffffffffffffff166108fc349081150290604051600060405180830381858888f1935050505015801561040b573d6000803e3d6000fd5b506002543461041a919061067a565b600160003373ffffffffffffffffffffffffffffffffffffffff1673ffffffffffffffffffffffffffffffffffffffff16815260200190815260200160002060008282546104689190610624565b925050819055505b565b60008054906101000a900473ffffffffffffffffffffffffffffffffffffffff1673ffffffffffffffffffffffffffffffffffffffff163373ffffffffffffffffffffffffffffffffffffffff16146104ca576104d2565b806002819055505b50565b6000813590506104e48161077e565b92915050565b6000813590506104f981610795565b92915050565b60006020828403121561051557610514610779565b5b6000610523848285016104d5565b91505092915050565b6000806040838503121561054357610542610779565b5b6000610551858286016104d5565b9250506020610562858286016104ea565b9150509250929050565b60006020828403121561058257610581610779565b5b6000610590848285016104ea565b91505092915050565b6105a2816106df565b82525050565b6105b181610711565b82525050565b60006020820190506105cc6000830184610599565b92915050565b60006060820190506105e76000830186610599565b6105f46020830185610599565b61060160408301846105a8565b949350505050565b600060208201905061061e60008301846105a8565b92915050565b600061062f82610711565b915061063a83610711565b9250827fffffffffffffffffffffffffffffffffffffffffffffffffffffffffffffffff0382111561066f5761066e61071b565b5b828201905092915050565b600061068582610711565b915061069083610711565b9250826106a05761069f61074a565b5b828204905092915050565b60006106b682610711565b91506106c183610711565b9250828210156106d4576106d361071b565b5b828203905092915050565b60006106ea826106f1565b9050919050565b600073ffffffffffffffffffffffffffffffffffffffff82169050919050565b6000819050919050565b7f4e487b7100000000000000000000000000000000000000000000000000000000600052601160045260246000fd5b7f4e487b7100000000000000000000000000000000000000000000000000000000600052601260045260246000fd5b600080fd5b610787816106df565b811461079257600080fd5b50565b61079e81610711565b81146107a957600080fd5b5056fea26469706673582212209a74a0eb2f6f7ce7e89b24f3a8db8b0198b8a63bf6ca9bb3498c4189b94979d864736f6c63430008070033",
					"opcodes": "PUSH1 0x80 PUSH1 0x40 MSTORE CALLVALUE DUP1 ISZERO PUSH2 0x10 JUMPI PUSH1 0x0 DUP1 REVERT JUMPDEST POP CALLER PUSH1 0x0 DUP1 PUSH2 0x100 EXP DUP2 SLOAD DUP2 PUSH20 0xFFFFFFFFFFFFFFFFFFFFFFFFFFFFFFFFFFFFFFFF MUL NOT AND SWAP1 DUP4 PUSH20 0xFFFFFFFFFFFFFFFFFFFFFFFFFFFFFFFFFFFFFFFF AND MUL OR SWAP1 SSTORE POP PUSH1 0x0 PUSH1 0x2 DUP2 SWAP1 SSTORE POP PUSH2 0x7E2 DUP1 PUSH2 0x68 PUSH1 0x0 CODECOPY PUSH1 0x0 RETURN INVALID PUSH1 0x80 PUSH1 0x40 MSTORE PUSH1 0x4 CALLDATASIZE LT PUSH2 0x55 JUMPI PUSH1 0x0 CALLDATALOAD PUSH1 0xE0 SHR DUP1 PUSH4 0x7546172 EQ PUSH2 0x5A JUMPI DUP1 PUSH4 0x27E235E3 EQ PUSH2 0x85 JUMPI DUP1 PUSH4 0x38DAA915 EQ PUSH2 0xC2 JUMPI DUP1 PUSH4 0x40C10F19 EQ PUSH2 0xEB JUMPI DUP1 PUSH4 0xA4821719 EQ PUSH2 0x114 JUMPI DUP1 PUSH4 0xD2E80494 EQ PUSH2 0x11E JUMPI JUMPDEST PUSH1 0x0 DUP1 REVERT JUMPDEST CALLVALUE DUP1 ISZERO PUSH2 0x66 JUMPI PUSH1 0x0 DUP1 REVERT JUMPDEST POP PUSH2 0x6F PUSH2 0x147 JUMP JUMPDEST PUSH1 0x40 MLOAD PUSH2 0x7C SWAP2 SWAP1 PUSH2 0x5B7 JUMP JUMPDEST PUSH1 0x40 MLOAD DUP1 SWAP2 SUB SWAP1 RETURN JUMPDEST CALLVALUE DUP1 ISZERO PUSH2 0x91 JUMPI PUSH1 0x0 DUP1 REVERT JUMPDEST POP PUSH2 0xAC PUSH1 0x4 DUP1 CALLDATASIZE SUB DUP2 ADD SWAP1 PUSH2 0xA7 SWAP2 SWAP1 PUSH2 0x4FF JUMP JUMPDEST PUSH2 0x16B JUMP JUMPDEST PUSH1 0x40 MLOAD PUSH2 0xB9 SWAP2 SWAP1 PUSH2 0x609 JUMP JUMPDEST PUSH1 0x40 MLOAD DUP1 SWAP2 SUB SWAP1 RETURN JUMPDEST CALLVALUE DUP1 ISZERO PUSH2 0xCE JUMPI PUSH1 0x0 DUP1 REVERT JUMPDEST POP PUSH2 0xE9 PUSH1 0x4 DUP1 CALLDATASIZE SUB DUP2 ADD SWAP1 PUSH2 0xE4 SWAP2 SWAP1 PUSH2 0x52C JUMP JUMPDEST PUSH2 0x183 JUMP JUMPDEST STOP JUMPDEST CALLVALUE DUP1 ISZERO PUSH2 0xF7 JUMPI PUSH1 0x0 DUP1 REVERT JUMPDEST POP PUSH2 0x112 PUSH1 0x4 DUP1 CALLDATASIZE SUB DUP2 ADD SWAP1 PUSH2 0x10D SWAP2 SWAP1 PUSH2 0x52C JUMP JUMPDEST PUSH2 0x2BB JUMP JUMPDEST STOP JUMPDEST PUSH2 0x11C PUSH2 0x36E JUMP JUMPDEST STOP JUMPDEST CALLVALUE DUP1 ISZERO PUSH2 0x12A JUMPI PUSH1 0x0 DUP1 REVERT JUMPDEST POP PUSH2 0x145 PUSH1 0x4 DUP1 CALLDATASIZE SUB DUP2 ADD SWAP1 PUSH2 0x140 SWAP2 SWAP1 PUSH2 0x56C JUMP JUMPDEST PUSH2 0x472 JUMP JUMPDEST STOP JUMPDEST PUSH1 0x0 DUP1 SLOAD SWAP1 PUSH2 0x100 EXP SWAP1 DIV PUSH20 0xFFFFFFFFFFFFFFFFFFFFFFFFFFFFFFFFFFFFFFFF AND DUP2 JUMP JUMPDEST PUSH1 0x1 PUSH1 0x20 MSTORE DUP1 PUSH1 0x0 MSTORE PUSH1 0x40 PUSH1 0x0 KECCAK256 PUSH1 0x0 SWAP2 POP SWAP1 POP SLOAD DUP2 JUMP JUMPDEST DUP1 PUSH1 0x1 PUSH1 0x0 CALLER PUSH20 0xFFFFFFFFFFFFFFFFFFFFFFFFFFFFFFFFFFFFFFFF AND PUSH20 0xFFFFFFFFFFFFFFFFFFFFFFFFFFFFFFFFFFFFFFFF AND DUP2 MSTORE PUSH1 0x20 ADD SWAP1 DUP2 MSTORE PUSH1 0x20 ADD PUSH1 0x0 KECCAK256 SLOAD LT ISZERO PUSH2 0x1CF JUMPI PUSH2 0x2B7 JUMP JUMPDEST DUP1 PUSH1 0x1 PUSH1 0x0 CALLER PUSH20 0xFFFFFFFFFFFFFFFFFFFFFFFFFFFFFFFFFFFFFFFF AND PUSH20 0xFFFFFFFFFFFFFFFFFFFFFFFFFFFFFFFFFFFFFFFF AND DUP2 MSTORE PUSH1 0x20 ADD SWAP1 DUP2 MSTORE PUSH1 0x20 ADD PUSH1 0x0 KECCAK256 PUSH1 0x0 DUP3 DUP3 SLOAD PUSH2 0x21E SWAP2 SWAP1 PUSH2 0x6AB JUMP JUMPDEST SWAP3 POP POP DUP2 SWAP1 SSTORE POP DUP1 PUSH1 0x1 PUSH1 0x0 DUP5 PUSH20 0xFFFFFFFFFFFFFFFFFFFFFFFFFFFFFFFFFFFFFFFF AND PUSH20 0xFFFFFFFFFFFFFFFFFFFFFFFFFFFFFFFFFFFFFFFF AND DUP2 MSTORE PUSH1 0x20 ADD SWAP1 DUP2 MSTORE PUSH1 0x20 ADD PUSH1 0x0 KECCAK256 PUSH1 0x0 DUP3 DUP3 SLOAD PUSH2 0x274 SWAP2 SWAP1 PUSH2 0x624 JUMP JUMPDEST SWAP3 POP POP DUP2 SWAP1 SSTORE POP PUSH32 0x3990DB2D31862302A685E8086B5755072A6E2B5B780AF1EE81ECE35EE3CD3345 CALLER DUP4 DUP4 PUSH1 0x40 MLOAD PUSH2 0x2AE SWAP4 SWAP3 SWAP2 SWAP1 PUSH2 0x5D2 JUMP JUMPDEST PUSH1 0x40 MLOAD DUP1 SWAP2 SUB SWAP1 LOG1 JUMPDEST POP POP JUMP JUMPDEST PUSH1 0x0 DUP1 SLOAD SWAP1 PUSH2 0x100 EXP SWAP1 DIV PUSH20 0xFFFFFFFFFFFFFFFFFFFFFFFFFFFFFFFFFFFFFFFF AND PUSH20 0xFFFFFFFFFFFFFFFFFFFFFFFFFFFFFFFFFFFFFFFF AND CALLER PUSH20 0xFFFFFFFFFFFFFFFFFFFFFFFFFFFFFFFFFFFFFFFF AND EQ PUSH2 0x313 JUMPI PUSH2 0x36A JUMP JUMPDEST DUP1 PUSH1 0x1 PUSH1 0x0 DUP5 PUSH20 0xFFFFFFFFFFFFFFFFFFFFFFFFFFFFFFFFFFFFFFFF AND PUSH20 0xFFFFFFFFFFFFFFFFFFFFFFFFFFFFFFFFFFFFFFFF AND DUP2 MSTORE PUSH1 0x20 ADD SWAP1 DUP2 MSTORE PUSH1 0x20 ADD PUSH1 0x0 KECCAK256 PUSH1 0x0 DUP3 DUP3 SLOAD PUSH2 0x362 SWAP2 SWAP1 PUSH2 0x624 JUMP JUMPDEST SWAP3 POP POP DUP2 SWAP1 SSTORE POP JUMPDEST POP POP JUMP JUMPDEST PUSH1 0x0 PUSH1 0x2 SLOAD EQ ISZERO PUSH2 0x3C5 JUMPI CALLER PUSH20 0xFFFFFFFFFFFFFFFFFFFFFFFFFFFFFFFFFFFFFFFF AND PUSH2 0x8FC CALLVALUE SWAP1 DUP2 ISZERO MUL SWAP1 PUSH1 0x40 MLOAD PUSH1 0x0 PUSH1 0x40 MLOAD DUP1 DUP4 SUB DUP2 DUP6 DUP9 DUP9 CALL SWAP4 POP POP POP POP ISZERO DUP1 ISZERO PUSH2 0x3BF JUMPI RETURNDATASIZE PUSH1 0x0 DUP1 RETURNDATACOPY RETURNDATASIZE PUSH1 0x0 REVERT JUMPDEST POP PUSH2 0x470 JUMP JUMPDEST CALLER PUSH20 0xFFFFFFFFFFFFFFFFFFFFFFFFFFFFFFFFFFFFFFFF AND PUSH2 0x8FC CALLVALUE SWAP1 DUP2 ISZERO MUL SWAP1 PUSH1 0x40 MLOAD PUSH1 0x0 PUSH1 0x40 MLOAD DUP1 DUP4 SUB DUP2 DUP6 DUP9 DUP9 CALL SWAP4 POP POP POP POP ISZERO DUP1 ISZERO PUSH2 0x40B JUMPI RETURNDATASIZE PUSH1 0x0 DUP1 RETURNDATACOPY RETURNDATASIZE PUSH1 0x0 REVERT JUMPDEST POP PUSH1 0x2 SLOAD CALLVALUE PUSH2 0x41A SWAP2 SWAP1 PUSH2 0x67A JUMP JUMPDEST PUSH1 0x1 PUSH1 0x0 CALLER PUSH20 0xFFFFFFFFFFFFFFFFFFFFFFFFFFFFFFFFFFFFFFFF AND PUSH20 0xFFFFFFFFFFFFFFFFFFFFFFFFFFFFFFFFFFFFFFFF AND DUP2 MSTORE PUSH1 0x20 ADD SWAP1 DUP2 MSTORE PUSH1 0x20 ADD PUSH1 0x0 KECCAK256 PUSH1 0x0 DUP3 DUP3 SLOAD PUSH2 0x468 SWAP2 SWAP1 PUSH2 0x624 JUMP JUMPDEST SWAP3 POP POP DUP2 SWAP1 SSTORE POP JUMPDEST JUMP JUMPDEST PUSH1 0x0 DUP1 SLOAD SWAP1 PUSH2 0x100 EXP SWAP1 DIV PUSH20 0xFFFFFFFFFFFFFFFFFFFFFFFFFFFFFFFFFFFFFFFF AND PUSH20 0xFFFFFFFFFFFFFFFFFFFFFFFFFFFFFFFFFFFFFFFF AND CALLER PUSH20 0xFFFFFFFFFFFFFFFFFFFFFFFFFFFFFFFFFFFFFFFF AND EQ PUSH2 0x4CA JUMPI PUSH2 0x4D2 JUMP JUMPDEST DUP1 PUSH1 0x2 DUP2 SWAP1 SSTORE POP JUMPDEST POP JUMP JUMPDEST PUSH1 0x0 DUP2 CALLDATALOAD SWAP1 POP PUSH2 0x4E4 DUP2 PUSH2 0x77E JUMP JUMPDEST SWAP3 SWAP2 POP POP JUMP JUMPDEST PUSH1 0x0 DUP2 CALLDATALOAD SWAP1 POP PUSH2 0x4F9 DUP2 PUSH2 0x795 JUMP JUMPDEST SWAP3 SWAP2 POP POP JUMP JUMPDEST PUSH1 0x0 PUSH1 0x20 DUP3 DUP5 SUB SLT ISZERO PUSH2 0x515 JUMPI PUSH2 0x514 PUSH2 0x779 JUMP JUMPDEST JUMPDEST PUSH1 0x0 PUSH2 0x523 DUP5 DUP3 DUP6 ADD PUSH2 0x4D5 JUMP JUMPDEST SWAP2 POP POP SWAP3 SWAP2 POP POP JUMP JUMPDEST PUSH1 0x0 DUP1 PUSH1 0x40 DUP4 DUP6 SUB SLT ISZERO PUSH2 0x543 JUMPI PUSH2 0x542 PUSH2 0x779 JUMP JUMPDEST JUMPDEST PUSH1 0x0 PUSH2 0x551 DUP6 DUP3 DUP7 ADD PUSH2 0x4D5 JUMP JUMPDEST SWAP3 POP POP PUSH1 0x20 PUSH2 0x562 DUP6 DUP3 DUP7 ADD PUSH2 0x4EA JUMP JUMPDEST SWAP2 POP POP SWAP3 POP SWAP3 SWAP1 POP JUMP JUMPDEST PUSH1 0x0 PUSH1 0x20 DUP3 DUP5 SUB SLT ISZERO PUSH2 0x582 JUMPI PUSH2 0x581 PUSH2 0x779 JUMP JUMPDEST JUMPDEST PUSH1 0x0 PUSH2 0x590 DUP5 DUP3 DUP6 ADD PUSH2 0x4EA JUMP JUMPDEST SWAP2 POP POP SWAP3 SWAP2 POP POP JUMP JUMPDEST PUSH2 0x5A2 DUP2 PUSH2 0x6DF JUMP JUMPDEST DUP3 MSTORE POP POP JUMP JUMPDEST PUSH2 0x5B1 DUP2 PUSH2 0x711 JUMP JUMPDEST DUP3 MSTORE POP POP JUMP JUMPDEST PUSH1 0x0 PUSH1 0x20 DUP3 ADD SWAP1 POP PUSH2 0x5CC PUSH1 0x0 DUP4 ADD DUP5 PUSH2 0x599 JUMP JUMPDEST SWAP3 SWAP2 POP POP JUMP JUMPDEST PUSH1 0x0 PUSH1 0x60 DUP3 ADD SWAP1 POP PUSH2 0x5E7 PUSH1 0x0 DUP4 ADD DUP7 PUSH2 0x599 JUMP JUMPDEST PUSH2 0x5F4 PUSH1 0x20 DUP4 ADD DUP6 PUSH2 0x599 JUMP JUMPDEST PUSH2 0x601 PUSH1 0x40 DUP4 ADD DUP5 PUSH2 0x5A8 JUMP JUMPDEST SWAP5 SWAP4 POP POP POP POP JUMP JUMPDEST PUSH1 0x0 PUSH1 0x20 DUP3 ADD SWAP1 POP PUSH2 0x61E PUSH1 0x0 DUP4 ADD DUP5 PUSH2 0x5A8 JUMP JUMPDEST SWAP3 SWAP2 POP POP JUMP JUMPDEST PUSH1 0x0 PUSH2 0x62F DUP3 PUSH2 0x711 JUMP JUMPDEST SWAP2 POP PUSH2 0x63A DUP4 PUSH2 0x711 JUMP JUMPDEST SWAP3 POP DUP3 PUSH32 0xFFFFFFFFFFFFFFFFFFFFFFFFFFFFFFFFFFFFFFFFFFFFFFFFFFFFFFFFFFFFFFFF SUB DUP3 GT ISZERO PUSH2 0x66F JUMPI PUSH2 0x66E PUSH2 0x71B JUMP JUMPDEST JUMPDEST DUP3 DUP3 ADD SWAP1 POP SWAP3 SWAP2 POP POP JUMP JUMPDEST PUSH1 0x0 PUSH2 0x685 DUP3 PUSH2 0x711 JUMP JUMPDEST SWAP2 POP PUSH2 0x690 DUP4 PUSH2 0x711 JUMP JUMPDEST SWAP3 POP DUP3 PUSH2 0x6A0 JUMPI PUSH2 0x69F PUSH2 0x74A JUMP JUMPDEST JUMPDEST DUP3 DUP3 DIV SWAP1 POP SWAP3 SWAP2 POP POP JUMP JUMPDEST PUSH1 0x0 PUSH2 0x6B6 DUP3 PUSH2 0x711 JUMP JUMPDEST SWAP2 POP PUSH2 0x6C1 DUP4 PUSH2 0x711 JUMP JUMPDEST SWAP3 POP DUP3 DUP3 LT ISZERO PUSH2 0x6D4 JUMPI PUSH2 0x6D3 PUSH2 0x71B JUMP JUMPDEST JUMPDEST DUP3 DUP3 SUB SWAP1 POP SWAP3 SWAP2 POP POP JUMP JUMPDEST PUSH1 0x0 PUSH2 0x6EA DUP3 PUSH2 0x6F1 JUMP JUMPDEST SWAP1 POP SWAP2 SWAP1 POP JUMP JUMPDEST PUSH1 0x0 PUSH20 0xFFFFFFFFFFFFFFFFFFFFFFFFFFFFFFFFFFFFFFFF DUP3 AND SWAP1 POP SWAP2 SWAP1 POP JUMP JUMPDEST PUSH1 0x0 DUP2 SWAP1 POP SWAP2 SWAP1 POP JUMP JUMPDEST PUSH32 0x4E487B7100000000000000000000000000000000000000000000000000000000 PUSH1 0x0 MSTORE PUSH1 0x11 PUSH1 0x4 MSTORE PUSH1 0x24 PUSH1 0x0 REVERT JUMPDEST PUSH32 0x4E487B7100000000000000000000000000000000000000000000000000000000 PUSH1 0x0 MSTORE PUSH1 0x12 PUSH1 0x4 MSTORE PUSH1 0x24 PUSH1 0x0 REVERT JUMPDEST PUSH1 0x0 DUP1 REVERT JUMPDEST PUSH2 0x787 DUP2 PUSH2 0x6DF JUMP JUMPDEST DUP2 EQ PUSH2 0x792 JUMPI PUSH1 0x0 DUP1 REVERT JUMPDEST POP JUMP JUMPDEST PUSH2 0x79E DUP2 PUSH2 0x711 JUMP JUMPDEST DUP2 EQ PUSH2 0x7A9 JUMPI PUSH1 0x0 DUP1 REVERT JUMPDEST POP JUMP INVALID LOG2 PUSH5 0x6970667358 0x22 SLT KECCAK256 SWAP11 PUSH21 0xA0EB2F6F7CE7E89B24F3A8DB8B0198B8A63BF6CA9B 0xB3 0x49 DUP13 COINBASE DUP10 0xB9 0x49 PUSH26 0xD864736F6C634300080700330000000000000000000000000000 "
				},
				"gasEstimates": {
					"creation": {
						"codeDepositCost": "403600",
						"executionCost": "29723",
						"totalCost": "433323"
					},
					"external": {
						"balances(address)": "2814",
						"buyToken()": "infinite",
						"mint(address,uint256)": "infinite",
						"minter()": "2489",
						"sender(address,uint256)": "infinite",
						"setConversionRate(uint256)": "24776"
					}
				},
				"methodIdentifiers": {
					"balances(address)": "27e235e3",
					"buyToken()": "a4821719",
					"mint(address,uint256)": "40c10f19",
					"minter()": "07546172",
					"sender(address,uint256)": "38daa915",
					"setConversionRate(uint256)": "d2e80494"
				}
			},
			"storageLayout": {
				"storage": [
					{
						"astId": 3,
						"contract": "contracts/Token.sol:MyToken",
						"label": "minter",
						"offset": 0,
						"slot": "0",
						"type": "t_address"
					},
					{
						"astId": 7,
						"contract": "contracts/Token.sol:MyToken",
						"label": "balances",
						"offset": 0,
						"slot": "1",
						"type": "t_mapping(t_address,t_uint256)"
					},
					{
						"astId": 9,
						"contract": "contracts/Token.sol:MyToken",
						"label": "rate",
						"offset": 0,
						"slot": "2",
						"type": "t_uint256"
					}
				],
				"types": {
					"t_address": {
						"encoding": "inplace",
						"label": "address",
						"numberOfBytes": "20"
					},
					"t_mapping(t_address,t_uint256)": {
						"encoding": "mapping",
						"key": "t_address",
						"label": "mapping(address => uint256)",
						"numberOfBytes": "32",
						"value": "t_uint256"
					},
					"t_uint256": {
						"encoding": "inplace",
						"label": "uint256",
						"numberOfBytes": "32"
					}
				}
			},
			"userdoc": {
				"kind": "user",
				"methods": {},
				"version": 1
			}
		}
	}
}