{
	"data": {
		"bytecode": {
			"linkReferences": {},
			"object": "608060405234801561001057600080fd5b506101f0806100206000396000f3fe608060405234801561001057600080fd5b50600436106100415760003560e01c806360fe47b1146100465780636d4ce63c14610062578063df851c9614610080575b600080fd5b610060600480360381019061005b91906100fd565b6100b0565b005b61006a6100ba565b6040516100779190610179565b60405180910390f35b61009a6004803603810190610095919061012a565b6100c3565b6040516100a79190610179565b60405180910390f35b8060008190555050565b60008054905090565b600080548314156100dd57816000819055508290506100e2565b600090505b92915050565b6000813590506100f7816101a3565b92915050565b6000602082840312156101135761011261019e565b5b6000610121848285016100e8565b91505092915050565b600080604083850312156101415761014061019e565b5b600061014f858286016100e8565b9250506020610160858286016100e8565b9150509250929050565b61017381610194565b82525050565b600060208201905061018e600083018461016a565b92915050565b6000819050919050565b600080fd5b6101ac81610194565b81146101b757600080fd5b5056fea264697066735822122078fdab837ebdfce69af32424406511af115c180d993145ee28e145c95d44c8c364736f6c63430008070033",
			"opcodes": "PUSH1 0x80 PUSH1 0x40 MSTORE CALLVALUE DUP1 ISZERO PUSH2 0x10 JUMPI PUSH1 0x0 DUP1 REVERT JUMPDEST POP PUSH2 0x1F0 DUP1 PUSH2 0x20 PUSH1 0x0 CODECOPY PUSH1 0x0 RETURN INVALID PUSH1 0x80 PUSH1 0x40 MSTORE CALLVALUE DUP1 ISZERO PUSH2 0x10 JUMPI PUSH1 0x0 DUP1 REVERT JUMPDEST POP PUSH1 0x4 CALLDATASIZE LT PUSH2 0x41 JUMPI PUSH1 0x0 CALLDATALOAD PUSH1 0xE0 SHR DUP1 PUSH4 0x60FE47B1 EQ PUSH2 0x46 JUMPI DUP1 PUSH4 0x6D4CE63C EQ PUSH2 0x62 JUMPI DUP1 PUSH4 0xDF851C96 EQ PUSH2 0x80 JUMPI JUMPDEST PUSH1 0x0 DUP1 REVERT JUMPDEST PUSH2 0x60 PUSH1 0x4 DUP1 CALLDATASIZE SUB DUP2 ADD SWAP1 PUSH2 0x5B SWAP2 SWAP1 PUSH2 0xFD JUMP JUMPDEST PUSH2 0xB0 JUMP JUMPDEST STOP JUMPDEST PUSH2 0x6A PUSH2 0xBA JUMP JUMPDEST PUSH1 0x40 MLOAD PUSH2 0x77 SWAP2 SWAP1 PUSH2 0x179 JUMP JUMPDEST PUSH1 0x40 MLOAD DUP1 SWAP2 SUB SWAP1 RETURN JUMPDEST PUSH2 0x9A PUSH1 0x4 DUP1 CALLDATASIZE SUB DUP2 ADD SWAP1 PUSH2 0x95 SWAP2 SWAP1 PUSH2 0x12A JUMP JUMPDEST PUSH2 0xC3 JUMP JUMPDEST PUSH1 0x40 MLOAD PUSH2 0xA7 SWAP2 SWAP1 PUSH2 0x179 JUMP JUMPDEST PUSH1 0x40 MLOAD DUP1 SWAP2 SUB SWAP1 RETURN JUMPDEST DUP1 PUSH1 0x0 DUP2 SWAP1 SSTORE POP POP JUMP JUMPDEST PUSH1 0x0 DUP1 SLOAD SWAP1 POP SWAP1 JUMP JUMPDEST PUSH1 0x0 DUP1 SLOAD DUP4 EQ ISZERO PUSH2 0xDD JUMPI DUP2 PUSH1 0x0 DUP2 SWAP1 SSTORE POP DUP3 SWAP1 POP PUSH2 0xE2 JUMP JUMPDEST PUSH1 0x0 SWAP1 POP JUMPDEST SWAP3 SWAP2 POP POP JUMP JUMPDEST PUSH1 0x0 DUP2 CALLDATALOAD SWAP1 POP PUSH2 0xF7 DUP2 PUSH2 0x1A3 JUMP JUMPDEST SWAP3 SWAP2 POP POP JUMP JUMPDEST PUSH1 0x0 PUSH1 0x20 DUP3 DUP5 SUB SLT ISZERO PUSH2 0x113 JUMPI PUSH2 0x112 PUSH2 0x19E JUMP JUMPDEST JUMPDEST PUSH1 0x0 PUSH2 0x121 DUP5 DUP3 DUP6 ADD PUSH2 0xE8 JUMP JUMPDEST SWAP2 POP POP SWAP3 SWAP2 POP POP JUMP JUMPDEST PUSH1 0x0 DUP1 PUSH1 0x40 DUP4 DUP6 SUB SLT ISZERO PUSH2 0x141 JUMPI PUSH2 0x140 PUSH2 0x19E JUMP JUMPDEST JUMPDEST PUSH1 0x0 PUSH2 0x14F DUP6 DUP3 DUP7 ADD PUSH2 0xE8 JUMP JUMPDEST SWAP3 POP POP PUSH1 0x20 PUSH2 0x160 DUP6 DUP3 DUP7 ADD PUSH2 0xE8 JUMP JUMPDEST SWAP2 POP POP SWAP3 POP SWAP3 SWAP1 POP JUMP JUMPDEST PUSH2 0x173 DUP2 PUSH2 0x194 JUMP JUMPDEST DUP3 MSTORE POP POP JUMP JUMPDEST PUSH1 0x0 PUSH1 0x20 DUP3 ADD SWAP1 POP PUSH2 0x18E PUSH1 0x0 DUP4 ADD DUP5 PUSH2 0x16A JUMP JUMPDEST SWAP3 SWAP2 POP POP JUMP JUMPDEST PUSH1 0x0 DUP2 SWAP1 POP SWAP2 SWAP1 POP JUMP JUMPDEST PUSH1 0x0 DUP1 REVERT JUMPDEST PUSH2 0x1AC DUP2 PUSH2 0x194 JUMP JUMPDEST DUP2 EQ PUSH2 0x1B7 JUMPI PUSH1 0x0 DUP1 REVERT JUMPDEST POP JUMP INVALID LOG2 PUSH5 0x6970667358 0x22 SLT KECCAK256 PUSH25 0xFDAB837EBDFCE69AF32424406511AF115C180D993145EE28E1 GASLIMIT 0xC9 0x5D DIFFICULTY 0xC8 0xC3 PUSH5 0x736F6C6343 STOP ADDMOD SMOD STOP CALLER "
		},
		"gasEstimates": {
			"creation": {
				"codeDepositCost": "99200",
				"executionCost": "147",
				"totalCost": "99347"
			},
			"external": {
				"cas(uint256,uint256)": "infinite",
				"get()": "2437",
				"set(uint256)": "22498"
			}
		},
		"methodIdentifiers": {
			"cas(uint256,uint256)": "df851c96",
			"get()": "6d4ce63c",
			"set(uint256)": "60fe47b1"
		}
	},
	"abi": [
		{
			"inputs": [
				{
					"internalType": "uint256",
					"name": "x",
					"type": "uint256"
				},
				{
					"internalType": "uint256",
					"name": "y",
					"type": "uint256"
				}
			],
			"name": "cas",
			"outputs": [
				{
					"internalType": "uint256",
					"name": "",
					"type": "uint256"
				}
			],
			"stateMutability": "nonpayable",
			"type": "function"
		},
		{
			"inputs": [],
			"name": "get",
			"outputs": [
				{
					"internalType": "uint256",
					"name": "",
					"type": "uint256"
				}
			],
			"stateMutability": "view",
			"type": "function"
		},
		{
			"inputs": [
				{
					"internalType": "uint256",
					"name": "x",
					"type": "uint256"
				}
			],
			"name": "set",
			"outputs": [],
			"stateMutability": "nonpayable",
			"type": "function"
		}
	]
}